:020000022000DC
:106000000000042059CC0700A9B30200A9AE020089
:10601000A9B30200A9B30200A9B302000000000066
:10602000000000000000000000000000A9B3020012
:10603000A9B3020000000000A9B30200A9B3020046
:1060400009B50200A9B3020069C10200C1BE020085
:10605000D1BE0200A9B3020079C40200A9B30200B4
:10606000A9B30200392F0300212F03000DC702003E
:10607000A9B30200A9B30200A9B30200A9B30200A8
:106080003DC702001DC70200A9B30200A9B3020068
:10609000A9B30200A9B30200A9190700A9B302001D
:1060A000A9B30200A9B30200A9B30200A9B3020078
:1060B000A9B30200A9B30200000000000000000024
:1060C000A9B30200A9B30200A9B30200755F0300DF
:1060D0002DC70200A9B30200A9B30200B5CE030088
:1060E00079C10200C9C70200A9B3020029B70200A2
:0860F00000000000A9B302004A
:1070000040F8044B40F8045B40F8046B40F8047B04
:1070100040F8048B40F8049B40F804AB40F804BBF4
:1070200040F804CB40F804DB6846704781F000412B
:1070300002E000BF83F0004330B54FEA41044FEA5D
:10704000430594EA050F08BF90EA020F1FBF54EAF8
:10705000000C55EA020C7FEA645C7FEA655C00F094
:10706000E2804FEA5454D4EB5555B8BF6D420CDD65
:107070002C4480EA020281EA030382EA000083EAE8
:10708000010180EA020281EA0303362D88BF30BD88
:1070900011F0004F4FEA01314FF4801C4CEA1131DE
:1070A00002D0404261EB410113F0004F4FEA03333D
:1070B0004CEA133302D0524263EB430394EA050FC8
:1070C00000F0A780A4F10104D5F1200E0DDB02FA37
:1070D0000EFC22FA05F2801841F1000103FA0EF2CB
:1070E000801843FA05F359410EE0A5F120050EF191
:1070F000200E012A03FA0EFC28BF4CF0020C43FAC2
:1071000005F3C01851EBE37101F0004507D54FF0CE
:10711000000EDCF1000C7EEB00006EEB0101B1F51E
:10712000801F1BD3B1F5001F0CD349085FEA300064
:107130004FEA3C0C04F101044FEA445212F5800F6F
:1071400080F09A80BCF1004F08BF5FEA500C50F10C
:10715000000041EB045141EA050130BD5FEA4C0CEF
:10716000404141EB0101013C28BFB1F5801FE9D24C
:1071700091F0000F04BF01460020B1FA81F308BF6F
:107180002033A3F10B03B3F120020CDA0C3208DD3B
:1071900002F1140CC2F10C0201FA0CF021FA02F116
:1071A0000CE002F11402D8BFC2F1200C01FA02F186
:1071B00020FA0CFCDCBF41EA0C019040E41AA2BFAB
:1071C00001EB0451294330BD6FEA04041F3C1CDA73
:1071D0000C340EDC04F11404C4F1200220FA04F093
:1071E00001FA02F340EA030021FA04F345EA03013D
:1071F00030BDC4F10C04C4F1200220FA02F001FAFF
:1072000004F340EA0300294630BD21FA04F0294680
:1072100030BD94F0000F83F4801306BF81F4801119
:107220000134013D4EE77FEA645C18BF7FEA655C8C
:1072300029D094EA050F08BF90EA020F05D054EA5E
:10724000000C04BF1946104630BD91EA030F1EBF63
:107250000021002030BD5FEA545C05D14000494167
:1072600028BF41F0004130BD14F580043CBF01F55A
:10727000801130BD01F0004545F0FE4141F4700140
:107280004FF0000030BD7FEA645C1ABF194610461B
:107290007FEA655C1CBF0B46024650EA013406BF1C
:1072A00052EA033591EA030F41F4002130BD00BFDB
:1072B00090F0000F04BF0021704730B54FF4806498
:1072C00004F132044FF000054FF0000150E700BF19
:1072D00090F0000F04BF0021704730B54FF4806478
:1072E00004F1320410F0004548BF40424FF0000165
:1072F0003EE700BF42004FEAE2014FEA31014FEAA8
:1073000002701FBF12F07F4393F07F4F81F06051F6
:10731000704732F07F4208BF704793F07F4F04BF41
:1073200041F40021704730B54FF4607401F000451E
:1073300021F000411CE700BF50EA010208BF70477E
:1073400030B54FF000050AE050EA010208BF70476F
:1073500030B511F0004502D5404261EB41014FF4D8
:10736000806404F132045FEA915C3FF4D8AE4FF0E0
:1073700003025FEADC0C18BF03325FEADC0C18BFC3
:10738000033202EBDC02C2F1200300FA03FC20FA14
:1073900002F001FA03FE40EA0E0021FA02F1144461
:1073A000BDE600BF4FEA4102B2F1E04324BFB3F5AE
:1073B000001CDCF1FE5C0DD901F0004C4FEAC0026C
:1073C0004CEA5070B2F1004F40EB830008BF20F050
:1073D0000100704711F0804F21D113F13872BCBF0A
:1073E00001F00040704741F480114FEA5252C2F15F
:1073F0001802C2F1200C10FA0CF320FA02F018BFA8
:1074000040F001004FEAC1234FEAD32303FA0CFCFA
:1074100040EA0C0023FA02F34FEA4303CCE77FEA89
:10742000625307D150EA01331EBF4FF0FE4040F4D3
:107430004000704701F0004040F0FE4040F4000082
:10744000704700BF80F0004002E000BF81F00041C3
:1074500042001FBF5FEA410392EA030F7FEA226CFA
:107460007FEA236C6AD04FEA1262D2EB1363C1BF8A
:10747000D218414048404140B8BF5B42192B88BFF9
:10748000704710F0004F40F4000020F07F4018BF1C
:10749000404211F0004F41F4000121F07F4118BF3C
:1074A000494292EA030F3FD0A2F1010241FA03FCE4
:1074B00010EB0C00C3F1200301FA03F100F00043CC
:1074C00002D5494260EB4000B0F5000F13D3B0F194
:1074D000807F06D340084FEA310102F10102FE2A03
:1074E00051D2B1F1004F40EBC25008BF20F0010073
:1074F00040EA03007047490040EB0000013A28BF12
:10750000B0F5000FEDD2B0FA80FCACF1080CB2EB94
:107510000C0200FA0CF0AABF00EBC2505242184312
:10752000BCBFD0401843704792F0000F81F40001B7
:1075300006BF80F400000132013BB5E74FEA41038A
:107540007FEA226C18BF7FEA236C21D092EA030FF6
:1075500004D092F0000F08BF0846704790EA010F70
:107560001CBF0020704712F07F4F04D1400028BF9D
:1075700040F00040704712F100723CBF00F500007F
:10758000704700F0004343F0FE4040F400007047B5
:107590007FEA226216BF08467FEA23630146420261
:1075A00006BF5FEA412390EA010F40F48000704774
:1075B0004FF0000304E000BF10F0004348BF40421A
:1075C0005FEA000C08BF704743F0964301464FF056
:1075D00000001CE050EA010208BF70474FF00003B2
:1075E0000AE000BF50EA010208BF704711F00043F3
:1075F00002D5404261EB41015FEA010C02BF8446C3
:107600000146002043F0B64308BFA3F18053A3F521
:107610000003BCFA8CF2083AA3EBC25310DB01FA68
:1076200002FC634400FA02FCC2F12002BCF1004FEC
:1076300020FA02F243EB020008BF20F0010070477D
:1076400002F1200201FA02FCC2F1200250EA4C00D1
:1076500021FA02F243EB020008BF20EADC70704717
:107660007BB972B90029BEBF00204FF0004106E08F
:1076700008BF00281CBF6FF000414FF0FF3000F042
:1076800017BBADF1080C6DE904CE002909DB002B16
:107690001ADB00F081F8DDF804E0DDE9022304B034
:1076A0007047404261EB4101002B1BDB00F074F896
:1076B000DDF804E0DDE9022304B0404261EB410162
:1076C000524263EB43037047524263EB430300F0C3
:1076D00063F8DDF804E0DDE9022304B0404261EB29
:1076E00041017047524263EB430300F055F8DDF867
:1076F00004E0DDE9022304B0524263EB4303704728
:1077000053B94AB9002908BF00281CBF4FF0FF3108
:107710004FF0FF3000F0CCBAADF1080C6DE904CEAB
:1077200000F03AF8DDF804E0DDE9022304B0704728
:1077300007EE900AF5EEC07AF1EE10FA01D400F0EF
:107740000BB8F1EE677A08B517EE900A00F004F86E
:10775000404261EB410108BDD0B5FFF7CBFD0C4BBA
:10776000002206460F4600F079F900F0A3FA04461D
:10777000FFF79EFD074B002200F070F902460B4612
:1077800030463946FFF756FC00F094FA2146D0BD4A
:107790000000F03D0000F0412DE9F047089D04464F
:1077A0008C46002B40F083808A42174647D9B2FAB4
:1077B00082F242B1C2F1200024FA00F091409740D9
:1077C00040EA010C94404FEA1748230CBCFBF8F642
:1077D0001FFA87FE08FB16C143EA014306FB0EF1C0
:1077E000994209D9FB1806F1FF3080F019819942BE
:1077F00040F21681023E3B445B1AA4B2B3FBF8F0A0
:1078000008FB103344EA034400FB0EFEA64509D9E9
:107810003C1900F1FF3380F00581A64540F202815A
:1078200002383C4440EA0640A4EB0E0400261DB199
:10783000D4400023C5E900433146BDE8F08702B9D2
:10784000FFDEB2FA82F2002A50D1CB1B4FEA174E6C
:107850001FFA87F80126B3FBFEFC210C0EFB1C333C
:1078600041EA034108FB0CF38B4207D979180CF16C
:10787000FF3002D28B4200F2E9808446C91AA3B2DB
:10788000B1FBFEF00EFB101143EA014408FB00F8C7
:10789000A04507D93C1900F1FF3302D2A04500F200
:1078A000D9801846A4EB080440EA0C40BFE78B429D
:1078B00009D9002D00F0B1800026C5E9000130464D
:1078C0003146BDE8F087B3FA83F6002E4AD18B42E9
:1078D00002D3824200F2B880841A61EB03010120D6
:1078E0008C46002DA8D0C5E9004CA5E7C2F12003C5
:1078F00020FA03F6974001FA02F04FEA174ED940FA
:107900003043030CB1FBFEF61FFA87F80EFB16118D
:1079100043EA014306FB08F1994204FA02F409D94B
:10792000FB1806F1FF3C80F08D80994240F28A807E
:10793000023E3B445B1A81B2B3FBFEF00EFB1033F8
:1079400041EA034100FB08F38B4207D9791800F1A3
:10795000FF3C73D28B4271D902383944CB1A40EACA
:10796000064678E7C6F1200C03FA06F422FA0CF377
:107970001C4320FA0CF701FA06F34FEA144E21FAE1
:107980000CF11F433B0CB1FBFEF91FFA84F80EFB10
:10799000191143EA014109FB08FA8A4502FA06F285
:1079A00000FA06F308D9611809F1FF3048D28A4578
:1079B00046D9A9F102092144A1EB0A01BFB2B1FBEA
:1079C000FEF00EFB101147EA014700FB08F8B8452E
:1079D00007D9E71900F1FF312ED2B8452CD902386A
:1079E000274440EA0940A7EB0807A0FB02894F455E
:1079F000C64649461AD317D05DB1B3EB0E0267EB0A
:107A0000010707FA0CFCF2404CEA0202F740C5E914
:107A1000002700263146BDE8F0872E4628460BE7B2
:107A20000646E9E61846FDE64345E5D2B8EB020E08
:107A300069EB04010138DFE70846D2E760468DE7CD
:107A40008146B9E7664675E730464AE7ACF1020C75
:107A5000394413E702383C4424E700BF70B54FF0C7
:107A6000FF0C4CF4E06C1CEA11541DBF1CEA1355CA
:107A700094EA0C0F95EA0C0F00F0DEF82C4481EA32
:107A8000030621EA4C5123EA4C5350EA013518BF52
:107A900052EA033541F4801143F4801338D0A0FB3F
:107AA00002CE4FF00005E1FB02E506F00042E0FBEC
:107AB00003E54FF00006E1FB03569CF0000F18BFF2
:107AC0004EF0010EA4F1FF04B6F5007F64F540749A
:107AD00004D25FEA4E0E6D4146EB060642EAC6212D
:107AE00041EA55514FEAC52040EA5E504FEACE2E9A
:107AF000B4F1FD0C88BFBCF5E06F1ED8BEF1004F9D
:107B000008BF5FEA500E50F1000041EB045170BD18
:107B100006F0004646EA010140EA020081EA03015C
:107B2000B4EB5C04C2BFD4EB0C0541EA045170BD58
:107B300041F480114FF0000E013C00F3AB8014F1D2
:107B4000360FDEBF002001F0004170BDC4F100041B
:107B5000203C35DA0C341BDC04F11404C4F120059C
:107B600000FA05F320FA04F001FA05F240EA0200F7
:107B700001F0004221F0004110EBD37021FA04F62D
:107B800042EB06015EEA430E08BF20EAD37070BDE7
:107B9000C4F10C04C4F1200500FA04F320FA05F046
:107BA00001FA04F240EA020001F0004110EBD37048
:107BB00041F100015EEA430E08BF20EAD37070BDB8
:107BC000C4F1200500FA05F24EEA020E20FA04F391
:107BD00001FA05F243EA020321FA04F001F0004140
:107BE00021FA04F220EA020000EBD3705EEA430EB1
:107BF00008BF20EAD37070BD94F0000F0FD101F0E0
:107C00000046400041EB010111F4801F08BF013C18
:107C1000F7D041EA060195F0000F18BF704703F056
:107C20000046520043EB030313F4801F08BF013DDD
:107C3000F7D043EA0603704794EA0C0F0CEA135599
:107C400018BF95EA0C0F0CD050EA410618BF52EA53
:107C50004306D1D181EA030101F000414FF0000059
:107C600070BD50EA410606BF1046194652EA430667
:107C700019D094EA0C0F02D150EA013613D195EADB
:107C80000C0F05D152EA03361CBF104619460AD123
:107C900081EA030101F0004141F0FE4141F470012D
:107CA0004FF0000070BD41F0FE4141F4780170BD1D
:107CB000704700BF4A0011D212F5001211D20DD543
:107CC0006FF47873B3EB62520ED44FEAC12343F0E2
:107CD000004343EA505323FA02F070474FF000008C
:107CE000704750EA013002D14FF0FF3070474FF03B
:107CF00000007047024BDA691268DA61704700BF12
:107D0000BC410120C460056146618761C0F81C80E8
:107D1000C0F82090C0F824A0C0F828B0C0F82CD03B
:107D200080ED0C8B80ED0E9B80ED10ABC0F808E071
:107D300049F01CBE2DE9F0432A4C00250326D4F857
:107D4000F8700021013143189A0803F00303BA5C6C
:107D50005B0042FA03F303F00303022BF2D0D4F8E2
:107D6000043109018A0803EB001089B300EB82019A
:107D700003681A0729D1D4F804219A4225D89A1AFF
:107D8000C2F301174FEA470ED4F808719F424FEA39
:107D9000921C4FEA121218D9D4F8F88018F80C90F7
:107DA00049FA0EF707F00307012F0ED106FA0EF37A
:107DB00004EB850E3F2D43EA090308F80C309ABF07
:107DC0000135CEF81421C4F8107104308842CFD1A7
:107DD0002DB1013D04EB8503D3F81401AFE7BDE8F5
:107DE000F08300BFBC410120124BD3F80421824232
:107DF00016D8D3F80811884212D230B4801AD3F8BA
:107E0000F8408109C0F30113655C5B0045FA03F299
:107E100002F00302012A4FEA101002D030BC704772
:107E20007047032202FA03F31D43655430BCFFF789
:107E300081BF00BFBC410120174BD3F8042182420F
:107E400017D8D3F80811884213D210B4801AD3F887
:107E5000F8408309C0F30112E35C5200134103F0C0
:107E60000303012B4FEA101005D000205DF8044BEE
:107E700070470020704700230133C218910802F0B8
:107E80000302615C520041FA02F202F00302022A8C
:107E9000F2D01801EAE700BFBC410120030701D17D
:107EA000FFF7A2BF704700BF61B138B5041F04EBF4
:107EB000810554F8040F030701D1FFF795FFA54290
:107EC000F7D138BD704700BF2DE9F0473B4CD4E9EE
:107ED00041120023C0E90233C0E90433521AC0E959
:107EE00000231D4683619C461F4619461A469A4642
:107EF00099469E46D4F8F86016F80A304FEA4909C8
:107F000043FA09F303F00303012B4DD0022B47D0B2
:107F1000002B3ED0D4F8FC600132B2EB860F4FEA62
:107F200086080FD0D4F8F8604FEA920A02F00309ED
:107F300016F80A304FEA4906334113F0030301D023
:107F4000012BD7D1012911D0022902D1466901366E
:107F5000466186698E4238BF816190450FD0012B02
:107F600026D04FEA920A02F00309C3E706690136F8
:107F7000066186698E4238BF81619045EFD17745B1
:107F800000D9C7602D014FEA0C13C0E90153BDE8C9
:107F9000F0870CF1010CC0F808C001371946B9E7A9
:107FA000013545600131B5E7013545601946B1E756
:107FB000BE4501D2C760BE460027D2E7BC410120C2
:107FC000030701D1FFF738BF0020704721F00F03EE
:107FD00070B51B4A1B4D1C1AE400A2FB0424640A62
:107FE0000219A3EB8416C5F8002100212246C5E939
:107FF0004163C5E93E0458F015FFA2000732D208DC
:108000000021D5F8000158F00DFF2022002105F5D0
:10801000067058F007FFD5F8FC20D5F80431501E43
:1080200003EB821301210022C5F83802C5F80C3198
:1080300085F81612A5F81422C5F83C2270BD00BFC1
:10804000F32C23FABC410120014488420ED241F2B4
:10805000055310F8012B03EB4313814283EA02031B
:10806000F7D1D8B2012838BF0120704705207047EA
:10807000064B1B6A5A68824203D91B685A689042B1
:10808000FBD31B69801A13F810007047BC41012014
:10809000074B1B6A5A68824203D91B685A68904290
:1080A000FBD31B69801A03EB40004078704700BF88
:1080B000BC410120064B1B6A5A68904203D21B68E0
:1080C0005A689042FBD3801A03EB800358697047CB
:1080D000BC410120094B1B6A5A68824203D91B68C4
:1080E0005A689042FBD3801A1A6903EB800302EBB3
:1080F0004002586953780B60704700BFBC410120B3
:108100002DE9F84F88464118884283463DD2034600
:1081100041F2055613F8012B06EB4616994286EA02
:108120000206F7D1F6B2012E38BF0126184BD3F85C
:1081300020A0BAF1000F25D0DAE90374EFB10134C1
:1081400000250AF1140904E00135AF4204F10204EC
:1081500013D014F8013CB342F6D123784345F3D150
:1081600059F825004246594658F072FE0028EBD1D6
:10817000DAF804002844BDE8F88FDAF800A0BAF174
:10818000000FD9D15046BDE8F88F0526CEE700BFD5
:10819000BC41012043688B422CBF5B1A0023436023
:1081A000704700BF70B546688E4206D90B46114431
:1081B0008E420446154601D8436070BD8068721A2D
:1081C0000144184458F016FE6268521B626070BD8C
:1081D00070B5054608460E4658F05CFE044620B1D0
:1081E000D5E90003314622469847204670BD00BFBE
:1081F0002DE9F84F9DF828400B9E14F0DF0F9146B3
:1082000005468A46A6EB02023AD0302C0AA9244E33
:108210000EBF10270E46012713F0800836D002EB60
:10822000D278A2EB68044FEA6808B8F1000F32DD9B
:10823000C3465F453A46A8BF5A46ABEB020BD5E9A9
:10824000000331469847BBF1000FF2DCB9F1000F93
:1082500005D0D5E9000351464A469847C844002C4A
:108260000BDDA044A7423A46A8BF2246A41AD5E98E
:10827000000331469847002CF4DC4046BDE8F88FF7
:1082800013F08008074E4FF01007C8D113F0010417
:1082900004D01446DAE74FF00008D7E79046C4E769
:1082A00088FC080074FC08002DE9F04788B0002421
:1082B0001F469DF84890119B139D8DF80F408046F6
:1082C00032B1A1421BDB9A074DD52B228DF80F202E
:1082D000C9B930218DF81F100DF11F0613F04004AD
:1082E0002BD09ABB144608AACDE900954046921BB4
:1082F0003146FFF77DFF204408B0BDE8F0872D220E
:1083000049428DF80F20109808AE0DF1100EA0F123
:108310000A0A01E0BC45E1D3B1FBF7F007FB1014FA
:10832000092C8CBF5444303406F8014D76458C46F8
:108330000146EFD113F04004D3D1002AD3D004A9D1
:108340008E42D0D906F8012C013ECCE70122CDE9BE
:1083500000920DF10F0140461193FFF749FF013DD7
:10836000119B0446BFE713F004021CBF20228DF8C6
:108370000F20ADE790F90010037800291EDA0246BD
:1083800003F07F005B0605D5402320EA03005B086D
:108390001842FAD1517801F0C003802B10D110B4EB
:1083A000531C01F03F0413F8011F01F0C002802AA2
:1083B00044EA8010F5D05DF8044B704718467047CA
:1083C000704700BF034601305B7803F0C003802B89
:1083D00005D110F8013F03F0C003802BF9D070479E
:1083E000014488420CD2421E0139002012F8013F9C
:1083F00003F0C003802B18BF01308A42F6D17047CA
:10840000002070477F289DBF024B185CC0F34000DE
:1084100000207047746808007F289DBF024B185CDD
:10842000C0F3C00000207047746808007F289DBF1B
:10843000024B185CC0F3800000207047746808008D
:108440007F289DBF024B185CC0F3001000207047CE
:10845000746808007F289DBF024B185CC0F3401071
:1084600000207047746808007F2804D8024B1B5C0A
:10847000DB0648BF20307047746808007F2804D8A6
:10848000024B1B5C9B0648BF20387047746808008D
:108490000144884239D210B40022E52408E003F0F8
:1084A000C003802B2DD10130531E8142DAB222D974
:1084B0000378002AF3D1BF2B11D81A0621D4421C0D
:1084C000914208D9104612F8013BBF2B07D81B0672
:1084D00017D49142F6D101205DF8044B7047F72B79
:1084E0000FD8DB0803F00603013044FA03F381429E
:1084F00003F00302DCD8B2FA82F040095DF8044BC5
:10850000704700205DF8044B70470120704700BFA2
:10851000B2EB131F20D9F0B41E0901EB4607961BDE
:108520003246012A844603F00F013D46044607D037
:1085300055F8023B013ACB40012A24F8023BF7D11F
:10854000701E37F8103023FA01F12CF810100029B2
:1085500018BF3046F0BC7047002070472DE9F0414D
:10856000069FD21B9FB39E1EA1F1020E3D4684467C
:1085700000243EF8023F36F8028F43442344013D75
:108580002CF8023B4FEA1344F3D101EB470100EB17
:1085900047076AB18D1E3E46114635F8023F013944
:1085A000234426F8023B4FEA1344F6D107EB420777
:1085B00044B1012327F8023B3F1A47FA03F2104661
:1085C000BDE8F081381A42101046BDE8F081002A5B
:1085D000F5D03C460746DDE72DE9F041069D521BEC
:1085E000DDB39F1EA1F1020E2E46844600243EF804
:1085F000023F37F8028F2344A3EB0803013E2CF817
:10860000023B4FEA2344F2D101EB450100EB450563
:1086100002B38E1E2F46114636F8023F013923441D
:1086200027F8023B4FEA2344F6D1531E05EB4303E0
:1086300005EB420203E01A4633F8021929B99842C1
:10864000F9D9101A4010BDE8F0810232101A40101A
:10865000BDE8F081AB1E2A46F1E72C460546D7E778
:1086600000EB410302EB4102A1B110B402E00DD1D5
:10867000013908D033F8020D32F8024D001B0028F2
:10868000F5DA4FF0FF305DF8044B704701205DF8DC
:10869000044B70470846704710B4D0E9013101EB34
:1086A0004303994204464FF0000005D233F8022DEF
:1086B000994242EA0040F9D323785DF8044BDB0786
:1086C00048BF4042704700BF2DE9F04F83B0D0E96A
:1086D00001AB0192002943D09C18BAF1000F28D0B9
:1086E000019F00252E46012203EB07093BF8027B80
:1086F000103647EA054590F8008018F0010FA446AF
:1087000004F1FF3EAFB205D0FF4352FA87F297B2B1
:10871000C2F30722D9B1734504F8017C1DD0744619
:10872000083E072E4FEA1525E5DCBAF1010ADDD136
:10873000D1B1E21A1C46037813F0010F204614BF92
:10874000FF21002103B0BDE8F04F58F06BBB0CF8DF
:10875000017BCC4501D06446E2E703B0BDE8F08F71
:108760001C46BAF1000FBBD1019A13441A1BE2E771
:10877000D0E9013202EB43039A429FED0B0A0DD27E
:108780009FED0A7A33F8021D07EE901AF8EEE77AA9
:108790009A42E0EE077AB0EE670AF3D30378DB077C
:1087A00048BFB1EE400A704700000000000080475B
:1087B000D0E9023293423DBF5A1C826018784FF0D4
:1087C000FF3070470269272A35D0222A33D0A2F120
:1087D0006201132932D8234BCB40DB4313F0010352
:1087E0002CD14169272926D0222924D0722A1BD0D6
:1087F000662A31D172291FD110B48469272C20D068
:10880000222C1ED0722A0BD0622A09D1722907D1DC
:108810008369272B15D0A3F12203B3FA83F35B09F5
:1088200018465DF8044B70476629E5D0622903D1EC
:108830008369272B0AD10123184670470023184665
:108840007047012318465DF8044B7047A3F12203DB
:10885000B3FA83F35B09EFE7622AEDD17229EBD11A
:10886000E6E700BF1100090010B503690A2B0446B2
:1088700048D0092BC36A04BF073323F00703013331
:10888000C362D4E9051394F87020C4E90413D2B18B
:10889000B4F87220616E8A423AD0501CA16EA4F8DE
:1088A00072008A5CA2610D2B22D0236953B9D4E9EE
:1088B0000701C4E90401626A84F870306366A4F8B1
:1088C0007230A26110BDD4E9010398476369A061C9
:1088D0000D2B0ED0013010D163695A1C0DD00A2B1C
:1088E0000BD094F870300A22A261002BDDD110BDAC
:1088F000A0690A23984263610DD094F87030002B70
:10890000F5D0D2E7836A01221344C0E90A32B8E7FE
:108910000022A261C7E7D4E901039847A061D9E723
:1089200070B50269541C34D004460D46002609E097
:108930000DB1636B83B12046FFF796FF22690126D4
:10894000531C09D00A2AF3D01046FFF75BFD58B933
:10895000232A0ED05C2A01D0304670BD63690A2BF1
:10896000FAD12046FFF780FF2046FFF77DFF2269FE
:10897000E6E72046FFF778FF2269501C05D1EBE7B8
:10898000FFF772FF2269511CE6D00A2A2046F7D170
:10899000D6E70026E0E700BF30B110F0030304D1B2
:1089A00002793A2A03D0184670470020704783683E
:1089B0000B6013F00100F7D19A07F5D11868034B4B
:1089C000C01AB0FA80F04009704700BF8CF108006F
:1089D000B0F59F7F09D010F0010304D043080CBF0D
:1089E000012000207047184670470120704700BFE3
:1089F000B0F5AF7F09D010F0010304D0430814BFD5
:108A0000012000207047184670470120704700BFC2
:108A10000346006858B110F0030F0AD110B404796E
:108A20008C4209D001205DF8044B13607047106040
:108A3000704713600120704700F10803136040681D
:108A40005DF8044B000A704701B9704770B51D46C8
:108A50008B0782B003D14E68F3B2934204D02B4609
:108A600002B0BDE870401847360A09D00C1D04EB6F
:108A7000860654F8041F0190A847B4420198F8D123
:108A800002B070BD024B89689D22FFF7DDBF00BFB9
:108A900015DD0500024B89686B22FFF7D5BF00BFCB
:108AA00051DB060010B4D0E90943026B194481621E
:108AB0002344D0185DF8044B704700BF10B44479CC
:108AC000032C06D80A46816A114481625DF8044B82
:108AD00070475DF8044BFFF7E5BF00BF38B5437939
:108AE000012B144611D0D0E9025229448160958CA3
:108AF000A942C4BF918443790022032B827104D917
:108B00000121FFF7CFFF047038BD836A0470013381
:108B1000836238BD70B54679012E15461C4614D0C7
:108B2000D0E90223114481609A8C9142C4BF998498
:108B300046790023032E837107D90321FFF7B2FF83
:108B4000230A05704470837070BD836A0570033317
:108B50008362230A4470837070BD00BF11320B46DC
:108B6000D2B20121FFF7D6BF16320B46D2B24FF078
:108B7000FF31FFF7CFBF00BF19320B46D2B2002141
:108B8000FFF7C8BF70B54479012C15461ED0D0E957
:108B9000026231448160968CB142C4BF91844479B1
:108BA0000022032C827111D9C269846A52F82330E1
:108BB000C4F5FF447D3403211C44FFF773FFE2B288
:108BC000C4F3072305704270837070BD826A05701C
:108BD0000023033282621A464270837070BD00BF68
:108BE00070B54479012C15461ED0D0E9026231449B
:108BF0008160968CB142C4BF918444790022032CD9
:108C0000827111D9C169826A51F823406FF0020361
:108C10009B1A03211C44FFF745FFE2B2C4F307236C
:108C200005704270837070BD826A05700023033244
:108C300082621A464270837070BD00BF0B461322D9
:108C40000021FFF767BF00BF4379012B09D0D0E9AE
:108C50000223114481609A8C9142C8BF99840023F9
:108C6000837170474379012B16D030B4D0E90242AA
:108C7000958CAC4209DC00228271032B03D8C369B6
:108C8000826A43F8212030BC7047948443790022E3
:108C9000012B8271F1D1F6E7704700BF0B4610221D
:108CA0000121FFF737BF00BF53220121FFF716BF95
:108CB00057220121FFF712BF59224FF0FF31FFF772
:108CC0000DBF00BF5A220021FFF708BF5B22002121
:108CD000FFF704BF0B4642220021FFF753BF00BF3E
:108CE0005D224FF0FF31FFF7F9BE00BF4379012B42
:108CF00009D0D0E90232043B8360918C8B42C8BF1B
:108D00009384002383717047322910B5044615D02F
:108D1000332907D02939CAB2BDE810404FF0FF31DE
:108D2000FFF7DCBEDE224FF0FF31FFF7D7FE204613
:108D3000D322BDE810400021FFF7D0BEDD224FF066
:108D4000FF31FFF7CBFEF2E762226FF00101FFF780
:108D5000C5BE00BF10B5632204464FF0FF31FFF7D8
:108D6000BDFE0123A37110BD10B501F167020446D9
:108D7000D2B24942FFF7B2FEE268138B43F001031F
:108D8000138310BD4379012B09D0D0E9023204339B
:108D90008360918C8B42C8BF93840023837170479A
:108DA0004379012B09D0D0E90232033B8360918CD7
:108DB0008B42C8BF93840023837170472DE9F04F25
:108DC00010EE104A002C9DF8245004465EDB002D66
:108DD00068D19FEDDB7AF0EEC07AF4EE477AF1EEDF
:108DE00010FA02F0200E00F3B880B4EE400AF1EE63
:108DF00010FA80F12182002B01F1FF3856DB42F09E
:108E00002005672D4EF0450E00F07E8110EE102AF1
:108E1000002A55D1662D00F0F0805A1D9045D8BF2C
:108E2000CB1F652D40F07A814FF02B084FF0000CDE
:108E30005E1C00274FF0650A00224FF02E09B2EEAB
:108E4000047A11E03031C9B204F1010B974221706C
:108E50005C4616D0F8EEE77A013230EE670AB2428D
:108E600020EE070A80F2D780FDEEC07A04F1010BF4
:108E700017EE901A0029E5DA3021974221705C46FE
:108E8000E8D1002BE6D004F8019BE3E7B4EE400AFA
:108E9000F1EE10FA9BD62D2504F8015BB1EE400AE5
:108EA000013996E704F8015B013992E742F02005A9
:108EB00010EE102A002A4EF0450E4FF00603A9D0FE
:108EC000B2F17E5F58D29FED9F7A9F4ADFED9F7A85
:108ED0009F4FB4EEC70AF1EE10FAACBF4FF0310A63
:108EE0004FF0300A02F1140920264FF0000C01E087
:108EF000F2EC017AB4EEE70AF1EE10FA04D5D7ED00
:108F0000007A20EE270AB4444A454FEA660607F184
:108F10000407EDD110EE102AB2F17E5F0DD2DFED25
:108F2000897AB4EEE70AF1EE10FA80F25181F2EE9E
:108F3000047A20EE270A0CF1010C662D00F0248142
:108F4000672D00F08D814FF02D088A1F9A4240F363
:108F50005481652D3FF46CAF54E18EF049028EF0E0
:108F60004E038EF0460522706370A5700334002313
:108F70002370201ABDE8F08F764ADFED777A774FBD
:108F800002F1140920264FF0000C01E0F2EC017A06
:108F9000F4EEC07AF1EE10FA04D8D7ED007A20EEA4
:108FA000270AB44491454FEA660607F10407EDD15C
:108FB000FDEEC07A17EE902A092A05DDDFED687A0A
:108FC00020EE270A0CF1010C662D00F0CD80652DF6
:108FD00000F0CC80672D18BF4FF02B0840F0808147
:108FE0001A1D904540F326811A469445C0F25081DF
:108FF000134600274FF02B0899E05E1CB0454FF058
:109000000008DCBFCB1E8E1E4746C4464FF0660AE2
:10901000002E3FF711AF662D6CD0F1EE047AB4EE5E
:10902000E70AF1EE10FA2ADB661E4FF0300B3278B9
:109030002E2A3146A2F1300906F1FF3708D0B9F1E6
:10904000090F07D8392A78D1B04287F801B005D086
:109050003E46ECE77278302A11D101314A782E2A47
:1090600000F0098101348C4288BF224605D912F8EC
:10907000016C02F801698A42F9D131220A70672D28
:1090800027D0B8F1000F3FF472AF364A84F800E001
:1090900082FB0C314FEAEC73C3EBA10382FB03218B
:1090A000DA17C2EBA10202EB820203EB8301ACEB05
:1090B000410CA3EB420330330CF1300CA37084F865
:1090C000018084F803C0043400232370201ABDE813
:1090D000F08F002BD5D014F8012C302A05D1631E57
:1090E0001C4613F8012D302AFAD02E2A08BF04F1AD
:1090F000FF34C6E76645C4DBF1EE047AB4EEE70A56
:10910000F1EE10FA90DABCE7002B40F09E8010EEF2
:10911000103A1A1E4FF001037FF4D2AE00263746F4
:10912000B046B446AA461A46672D7FF474AF002AAB
:1091300023DD1E464FF0670A6AE7013232709EE770
:10914000FFFF7F7FF8FF7F3F44AA08001FB14F0A4F
:1091500058AA08005CAA0800AEC59D7440AA080081
:10916000CDCCCC3D67666666E0454EDC8A1F9A42F0
:1091700000DCCB1F4FF02B085AE601231E464FF0B0
:10918000670A59E6B7EE000A26461A4606F801AB0A
:10919000531C984528DCCA1E2E23BCF1010C6370B9
:1091A00004F1020400F0A1801646302301E0002EF5
:1091B00077D0BCF1010C04F8013B06F1FF36F6D183
:1091C00022EAE273E0464FF0FF374FF0660A1FE7EE
:1091D000BCF1000F62D1662DD4D0672D76D04FF050
:1091E0002B08B7EE000AB0E6002AD5D13446134664
:1091F000164690464FF0660A0DE7652DA1F107036C
:109200003FF416AEAA46002605E70CEB0302013236
:1092100090454CDCA8EB0C08B8F1010FA8F1020254
:1092200059D013466244561C67464FF000084FF071
:10923000660AEDE68A1FD8E64EF04E038EF0410531
:109240002370A3706570033491E610EE102A002A93
:109250007FF436AE5A1D90453FF760AFCB1F5DE7F8
:10926000BCF1040F25DD8A1F9A4237DC13464FF00C
:109270002D0800275BE7BAF1660F3FF4F3AE302606
:10928000B8F12D0F0A704E701AD00CF1010CEAE6FD
:109290000CF10103D21A22EAE273C3E7B7EE000A27
:1092A0004BE622EAE273B0464FF0660AB3E61A468E
:1092B000B8E70CF1FF3226461A4406F801AB67E71F
:1092C000BCF1010C08BF4FF02B08CCE64FF0FF3289
:1092D000B7EE000AEFE700231A46A3E74FF02D0888
:1092E00000263746AA461A461EE722EAE2731646C9
:1092F000E0464FF0FF374FF0660A89E6D0E90232C8
:1093000093420DD010B4D0E900415A1C82608A42C9
:10931000E35C24BF002282605DF8044B184670476E
:109320004FF0FF30704700BF30B40346D3E901541B
:10933000C068421C954298BF0022944205D01C6828
:1093400021540020DA6030BC70474FF0FF30FAE75C
:109350004268D0E9020313441B1AB3FBF2F002FB8C
:10936000103070472DE9F04104461046D2B101EBB0
:10937000020EE6680EF1FF3E4D1EC1F1010C00E049
:109380001E46D4E90171731CBB4228BF00239942D9
:109390000CEB050815F8017F06D0216875458F553F
:1093A000E360EDD1BDE8F0814046FBE712B32DE963
:1093B000F0414C1E0346C1F1010C04EB02084FF0D2
:1093C000000ED3E90256B54205F101010CEB040091
:1093D0000ED0D3E900679960B942755D28BF714628
:1093E000996004F8015F4445EBD11046BDE8F08177
:1093F0000246FAE71046704730B4836B5C68240974
:109400000FD0DD680023043501E09C4209D055F8F7
:109410003300B0F904208A4203F10103F5D130BCD6
:1094200070470E2030BC7047704700BF054B0340AB
:10943000062B03BFC0F3C100034B53F820000348C1
:10944000704700BF070080FF2C20090034EF0800A0
:1094500038B58168CA0704461AD48B0715D0084668
:10946000FFF7E4FF4369054605209847E168B1EB43
:10947000600F10DA49002B6AA06841F00101042254
:109480009847E3680133E36038BD0D686B69EBE72B
:10949000024B034DE8E7002038BD00BFE5BF0500E3
:1094A0008CF10800C10705D4820701D0FFF7BEBFC9
:1094B00000687047004870478CF10800C1070FD45E
:1094C000820708B506D0FFF7B1FFBDE80840C088A5
:1094D000FEF7F0BD0368D888BDE80840FEF7EABD96
:1094E0005E20FEF7E7BD00BF10B5840701460AD134
:1094F0000068104B98420FD0CA0708D50E4BBDE844
:10950000104005201847C307F8D4FFF78FFF4369C1
:10951000002BF4D1184610BD084B0B40062B04D08D
:109520008868400040F0010010BD0809FEF7B0FD5A
:10953000F7E700BF64EC0800E5BF05000F0080FFFF
:109540001E281FD03E2810B5044619D00E2824D05E
:10955000C20703D5013818BF012010BD83070DD005
:10956000FFF764FF43697BB121460420984758B157
:10957000A0F13E00B0FA80F0400910BD0068F1E7AC
:10958000012010BD002070472046FFF7ADFF0028E6
:10959000F6D0013818BF012010BD002010BD00BF5B
:1095A000704700BF10B4054A054C88600023C1E92C
:1095B000004208465DF8044BCB60704751940200AE
:1095C0006CF3080038B510F001050FD1830704468D
:1095D0000AD0FFF72BFFC36A23B120469847B0FAA1
:1095E00080F56D09284638BD0068F4E70025284657
:1095F00038BD00BF062806BF490041F00100002029
:10960000704700BF042808D0052804D188684000AE
:1096100040F001007047002070478B68002B14BF9A
:109620003E201E20704700BF0023C1E90233074AD5
:1096300048600A600268064B9A4201D008467047AB
:109640004368C3F317238B600846704784EA080019
:109650007CF20800136803B1704770B44668B41C0C
:1096600050F8244066B1043C02E001339E4207D02A
:1096700054F8045FA942F8D1023350F82330136044
:1096800070BC7047032A04D01E2907D00649FEF794
:109690009FBD1E2905D00549FEF79ABD0449FEF776
:1096A00097BD0449FEF794BDA01008009010080073
:1096B000A810080098100800136803B1704740F222
:1096C000FE3399420CD040F235339942F6D183688B
:1096D00023F0030343F00203A3F1FF431360704739
:1096E000436823F0030343F00203A3F1FF43136035
:1096F000704700BF044B0B60037A0B7143688B60AB
:109700000023CB600846704780EE080010B40122A9
:10971000044C886000230C6008465DF8044B0A7115
:10972000CB60704780EE080004280AD0052806D1D7
:109730004868C0F31B10400040F001007047002053
:1097400070474B6833F00F0314BF3E201E20704754
:1097500070B5044615460E46FFF7A4FE074BC268D7
:109760009A4218BF2469A36823B1E3883360A368D1
:109770002B6070BD33602B6070BD00BF8DF50300A2
:1097800001F1FF4323F0030307EE903A072805D8C1
:10979000DFE800F01308040415041D0600207047DC
:1097A000002B0ADAF1EE677A17EE901A21F0030126
:1097B00041F00201A1F1FF40704708467047F5EE05
:1097C000407AF1EE10FA14BF3E201E207047FDEEE5
:1097D000E77A17EE901A490041F00100704700BF88
:1097E000136803B17047172904D0BC2904BF43682C
:1097F00013607047836813F9011B0029FBDB13F921
:10980000011B0029FBDB1B881B0143F006031360CF
:10981000704700BF836813F9012B002AFBDB13F9A3
:10982000012B002AFBDB1888704700BF4068FFF758
:10983000D7BF00BFC30706D5401000280FDB14BFF9
:1098400001200020704783683BB1037913F0010FBA
:1098500014BF4FF0FF3001207047184670474FF09B
:10986000FF3070471E2811D03E280CD010F00103A5
:109870000FD0401007EE900AB8EEE70A81ED000A1B
:10988000012318467047B7EE000AF7E79FED120A6A
:10989000F4E710F0030208D110B5104A04689442AE
:1098A00082B00FD0184602B010BD022AE9D10C4A8E
:1098B0000240062AE5D000F1FF4020F0030300EE4D
:1098C000103ADBE704300191FEF752FF01990123C2
:1098D00081ED000AE6E700BF000000008CF10800FF
:1098E000070080FF10B4054A054C88600023C1E9D9
:1098F000004208465DF8044BCB60704705990200B2
:109900006CF30800D0E9021203468868824205D24F
:10991000C868511C50F82200D96070470020704779
:109920000E20704743681847032A02D00249FEF709
:109930004FBC0249FEF74CBCB8100800B01008003C
:10994000C268002A05DDD0E901318B4206DB002028
:109950007047FCD0D0E901318B42F8DD1A445B003E
:10996000426043F00100704710B4D1E90143CA6876
:109970001B1B1344002ACCBF03F1FF33013304281F
:1099800093FBF2F30DD0052807D123EAE3735800C7
:1099900040F001005DF8044B704700205DF8044B77
:1099A0007047002BCCBF3E201E205DF8044B704753
:1099B00030B4D0E90154C268034BCA60C1E9015414
:1099C000084630BC0B60704720F4080070B4D0E942
:1099D000026374689C4214D9F16803F18042013A31
:1099E00001EB820151F8042F9D003AB1042A05D001
:1099F0000133C360F368585970BC704701339C420F
:109A0000F0D1002070BC704710B4054A054C886046
:109A10000023C1E9004208465DF8044BCB60704763
:109A2000CD9902006CF30800136803B170479229C6
:109A300009D0962904D0952904BFC36813607047E4
:109A40008368136070474368136070471E280ED008
:109A50003E280CD010F001030AD110F0030209D106
:109A60000168094A914208BF012318467047012343
:109A700018467047022AFBD1044B0340063B18BF2F
:109A800001231846704700BF8CF10800070080FFD3
:109A900010B4054A054C88600023C1E9004208461D
:109AA0005DF8044BCB607047B19A02006CF308007C
:109AB00010B50F4B044680680340062B82B010D0CF
:109AC000D0E902200192E368934207D2C05C4000D3
:109AD000013340F00100E36002B010BD002002B08D
:109AE00010BD000901A9FEF7F5FA019AEBE700BFE6
:109AF0000F0080FFF0B5204B0B40062B83B00546CE
:109B000032D0D1E9023601939BB11C4B9D4206F144
:109B1000FF3711D01A4B9D4203D10DE0019BA342A8
:109B20001FD93C4617F8010FA8470234A41B002890
:109B3000F4D11E2003B0F0BD00213C4617F8012FE0
:109B40001046FEF769FC034610461BB1A8470146C4
:109B50000028EED0019B0234A41BA342EDD80029BB
:109B6000E7D03E2003B0F0BD080901A9FEF7B2FA24
:109B7000019B0646C8E700BF0F0080FF418402003A
:109B80005584020001460148FFF7B4BF0584020076
:109B900001460148FFF7AEBF1984020001460148A3
:109BA000FFF7A8BF2D84020001460148FFF7A2BFBE
:109BB0004184020001460148FFF79CBF5584020022
:109BC00070B40023136010F8014B303C05E010F82E
:109BD000014B303CE5B2092D07D803EB830304EBBE
:109BE0004303884213600646F1D3304670BC704789
:109BF000012A01D00120704710B50A4B0340062B03
:109C000082B00C4608D0D0E9022020604223002018
:109C1000C4E9012302B010BD000901A9FEF75AFAF8
:109C2000019AF2E70F0080FF2DE9F0479942DDF835
:109C300020901AD3B9F1010F0C461F468046924678
:109C400007BFCE1A0024E41A002602E0B4420CD06A
:109C50004C4408EB040528463A46514657F0F8F8BC
:109C60000028F3D12846BDE8F08700252846BDE846
:109C7000F08700BF2DE9F04F052815BF3E261E26B0
:109C80004FF01E084FF03E08914285B005468B46C6
:109C900014463BD0754B0BEA0301062947D01BF055
:109CA000030F0BD01BF001076CD0E70704F0010392
:109CB0006ED54646304605B0BDE8F08F6C4FDBF8F8
:109CC0000000B842EED104EA0307062F34D1DBF8D6
:109CD00004502009FEF7CCF90627002D40F08180C2
:109CE000062900F0A680DBE902350293062F00F07A
:109CF0009980D4E902210392029B9A42D9D1284645
:109D000057F0A6F8B0FA80F0400974E011F0010FA6
:109D1000D0D111F0030F5FD00846FFF787FB83888F
:109D20005A07C7D5514B0BEA03010629B7D104EAFC
:109D30000307062F00F08480A30703D14C48236853
:109D400083423FD0012704EA0703DFF82CA10BBBB5
:109D5000A00743D02046FFF769FB8146D9F81830A9
:109D60003BB3B9F80420110770D5052D50D0D9F8B0
:109D700018305A46214602209847D0B1022D38D1DA
:109D8000064697E723465C469B4604F00103DCE762
:109D90000127DAE71BF00102D146E8D1354B1BF071
:109DA000030F32D058460193FFF740FB019B484513
:109DB000DBD0002F50D05C4518BF4646304605B07A
:109DC000BDE8F08F06291AD0062FDBF8045080D0AA
:109DD0006068002D84D004E00868A0E7D4F8009003
:109DE000BCE700283FF47CAFA8423FF479AF464679
:109DF00060E7FFF7A5FB002808BF46465AE74FEA91
:109E00001B10FEF735F90546E2E7DBF80000CEE768
:109E1000D206ACD55A462146284698470028A6D0F7
:109E2000064647E703A92009FEF754F9039A0146BD
:109E300062E74FEA1B1002A9FEF74CF9054655E709
:109E4000ABEB0400B0FA80F04009D4E71BF0010F3F
:109E500018BF5046ABD1A2E722460BF001035C4687
:109E600001279346002B3FF473AF93E70F0080FF69
:109E700088F50800050008008CF1080008B50A46BE
:109E800001460220FFF7F6FEBDE80840FFF758BB89
:109E9000054B0340062B03D083680B60C0687047F6
:109EA0000009FEF717B900BF0F0080FF10B4054A84
:109EB000054C88600023C1E9004208465DF8044B68
:109EC000CB607047CDF806006CF3080010B582B087
:109ED0000446084601A9FFF7DBFF042C0CD0052C33
:109EE00007D10199FEF77CFA400040F0010002B072
:109EF00010BD002002B010BD019B002B14BF3E20FE
:109F00001E2002B010BD00BFD0E90212034648680F
:109F1000824205D2901C013251F82000DA6070476D
:109F20000020704710B4054A054C88600023C1E941
:109F3000004208465DF8044BCB607047099F020061
:109F40006CF30800F8B5184A184C194D0E4607E096
:109F5000C368A34209D1406B20B10368AB4208D06B
:109F60009042F5D100242046F8BD306001242046FF
:109F7000F8BD476800F1080505EB8707BD424FF0C3
:109F80000004F0D255F8040B3146FFF7DBFFAF4277
:109F90000444E8D955F8040B3146FFF7D3FFAF422C
:109FA0000444EFD8DFE700BFF4F208001D0E0700FD
:109FB0003CF6080070B50C4684B054F8046B01926E
:109FC00000230393054603A93068FFF7BBFF0398FE
:109FD000019B2246691EC468A04730610E2004B070
:109FE00070BD00BF2DE9F041184C194D0E460AE036
:109FF00010F003020CD10368A3420CD1406B28B1CE
:10A000000368AB420AD0B042F2D10120BDE8F08132
:10A010000020BDE8F0811046BDE8F081436803F1FF
:10A02000804808F1FF3800F1080303EB8808434536
:10A030000AD21F4657F8040B3146FFF7D3FF3B46C1
:10A040000028E3D1B845F5D81868DCE778F60800B1
:10A050003CF60800830703D1064B02689A4202D0FF
:10A060000549FFF7BFBF054BC2689A42F8D10120EE
:10A07000704700BF78F60800C8E208008DF50300BD
:10A0800030B583B005460191FFF70CFA0446FFF79F
:10A09000E1FF019900280CBF2846204603B0BDE827
:10A0A0003040FFF79FBF00BF38B50D460446FFF7AD
:10A0B000F9F9854205D02946FFF794FF00B12069E0
:10A0C00038BD204638BD00BF38B50D46044914469A
:10A0D000FFF7EAFF83682B60C368236038BD00BFC9
:10A0E00004F208000B4610B50A4904461846FFF76B
:10A0F000DBFF042C08D0052C04D18068400040F020
:10A10000010010BD002010BD8368002B14BF3E204D
:10A110001E2010BD04F2080070B50E49FFF7C4FF01
:10A120008368012B03EBD37612DD03F18043013BFF
:10A1300076109B000022C168CD5851F8224041F8AA
:10A1400022500132C168B242CC50A3F10403F2DBC9
:10A150000E2070BD04F2080010B582B004460191D3
:10A16000FFF7A0F9034601991B6A2046042202B0BA
:10A17000BDE81040184700BF10B582B0CDE90021FE
:10A180000446FFF78FF90346DDE900211B6A2046EC
:10A1900002B0BDE81040184710B582B004460191E6
:10A1A000FFF780F9034601991B6A2046002202B09E
:10A1B000BDE81040184700BF00B583B00191009082
:10A1C000FFF770F9DDE900128369242003B05DF820
:10A1D00004EB184710B504460846FFF763F9006B17
:10A1E00018B10388A34218BF002010BDF8B504467B
:10A1F000022C069F0E461846154615D084B9012438
:10A20000BD422A46314628BF3A4656F021FE002874
:10A210000CDB21D1AF4221D02CBF01200020F8BDA2
:10A22000032C0DD10424EBE7BA4201D00020F8BD85
:10A230001946304656F00CFEB0FA80F04009F8BDE1
:10A24000BD422A46014628BF3A46304656F000FE37
:10A250003B462F461D46DAE70120F8BD601E18BFB9
:10A260000120F8BD91B1F8B5041F174604EB810534
:10A27000002654F8040F3946FFF700FE00B10136FE
:10A28000AC42F6D1700040F00100F8BD01207047EB
:10A2900000B583B00A4606490192FFF705FFD0E9F1
:10A2A0000210019A03B05DF804EBFFF7DBBF00BFBB
:10A2B00004F208000A46083050F8041CFFF7D2BF29
:10A2C0002DE9F04707460D4601464FF479709A464E
:10A2D0001446FFF77FFF9DF82080D0E9019318F026
:10A2E000020F4FF0000618BF9946CAF800601CB371
:10A2F00008F0010807E0431C10D00644B8F1000F35
:10A3000016D1241A07D02946534622463846C84754
:10A3100005440028EFD13046BDE8F087DAF8003078
:10A320000B2BF8D1002EF6D00023CAF80030F2E74C
:10A3300006463046BDE8F0872646ECE710B582B009
:10A340001446019361B101AB191838B1134610449A
:10A3500011F8012D03F8012B8342F9D102B010BD91
:10A36000024601A9204656F017FD02B010BD00BFFD
:10A37000014B9869704700BFBC410120014B5869EF
:10A38000704700BFBC410120024B002283F8162217
:10A390000E207047BC410120024B012283F8162297
:10A3A0000E207047BC410120034B93F81632002B5E
:10A3B00014BF3E201E207047BC41012000B589B06B
:10A3C00001A8FDF781FD0398400040F0010009B0AD
:10A3D0005DF804FB00B589B001A8FDF775FD029892
:10A3E000400040F0010009B05DF804FB034B186920
:10A3F0009B68C01A400040F001007047BC4101203A
:10A40000054AB2F81432013B9BB25800A2F814324C
:10A4100040F00100704700BFBC410120034AB2F880
:10A4200014320133A2F814320E207047BC410120CF
:10A4300030B405784C1E35B916E0AA4210D110F898
:10A44000015F5B1A7DB1234614F8012F0233002A05
:10A45000F3D17F2D0ED80B4B5B5D13F00C0F0CD09E
:10A46000002030BC704719440A78B2FA82F04009E3
:10A4700030BC7047012030BC7047B5F15F0018BF99
:10A480000120EEE774680800002813DD002908DDCC
:10A490006FF0404393FBF1F18142ACBF00200120FB
:10A4A00070474FF0404393FBF0F08842D4BF002048
:10A4B00001207047002908DD4FF0404393FBF1F184
:10A4C0008142D4BF00200120704738B16FF0404373
:10A4D00093FBF0F08142ACBF00200120704700BF29
:10A4E0002DE9F04F85B007460C460192002A40F056
:10A4F000188201F10C053B78D4F800A03846002BF7
:10A5000075D00AF102024FF00008AA18C346039260
:10A510005646292B57D05E2B00F2E381232B40F2C5
:10A52000BB81243B3A2B00F2B781DFE813F0C40172
:10A53000B501B501B5016E01B50137011801B501CD
:10A54000B501C500B501B501B501B501B501B5014C
:10A55000B501B501B501B501B501B501B501B5014B
:10A56000B501B5019F00B501B501B501B501B50152
:10A57000B501B501B501B501B501B501B501B5012B
:10A58000B501B501B501B501B501B501B501B5011B
:10A59000B501B501B501B501B501B501CE00630046
:10A5A000B5013B00002D00F0B88123685022591CF2
:10A5B0002160EA5426686368013338466360437853
:10A5C000471C002BA5D13846BBF1000F0BD02368E8
:10A5D000A3EB0B03013B5AB29A4218BF48F00108A3
:10A5E0000DB105F80B30B8F1000F40F0928105B0C5
:10A5F000BDE8F08F7B78781C002B00F08A8143F057
:10A600002002642A266800F05F8123F0040343F0EF
:10A610002003732B00F05881002D00F0DD81731CA6
:10A6200023604FF00103AB557A782368A2F16101F2
:10A630005F1C27602B44152900F2B082DFE811F07F
:10A64000AD020303AE02AE02AE020003AE02AE02E2
:10A65000AE02AE02AE02AE02AE02FD02AE02AE022B
:10A66000AE02FA02AE02F702AE02F4022268B24271
:10A6700000F04F81002D00F08681B01C921B284411
:10A68000A91956F0B7FB2368023323607B783F2B70
:10A6900000F0A7826123AB5523689B1B023B5AB293
:10A6A000384601369A4218BF48F00108AB55266873
:10A6B00063680133636082E72668002D00F038820A
:10A6C000721C02232260AB5575E77B7826685E2BEF
:10A6D00007F1010000F00682002D00F04B82721C91
:10A6E00003232260AB55D4E9002301330132C4E9CE
:10A6F00000237B785D2B00F007820021002B00F007
:10A7000008815C2B00F06B812368002D00F0D38161
:10A710005A1C22600278EA54024653782D2B00F02E
:10A72000828103785C2B00F087812368002D00F084
:10A73000C6815A1C22600278EA5443785D2B01F1ED
:10A74000010100F10100D9D14BB28B4218BF48F092
:10A750000108002D3FF433AFAB1959702FE7226881
:10A76000B24200F0D6807B783F2B00F0CF81002DE5
:10A7700000F00A826223AB542368F61A023E72B2DA
:10A7800038460133B24218BF48F00108EE5422683F
:10A790006368961C0133C4E9006310E72268B24283
:10A7A00000F0B780002D00F0FE80B01C921BA919AC
:10A7B000284456F01FFB2368023360222360EA54CA
:10A7C0002368F21A2B44023A5A702368023323603A
:10A7D0007B7851B2914218BF48F001083F2B00F03E
:10A7E000B4816123AB5523689B1B023B5AB29A424A
:10A7F00018BF48F00108384601365FFA88F8AB55B3
:10A800002668636802336360D9E67B7826683F2B4D
:10A8100000F06081A36803F10109C4F80890002DDD
:10A8200000F08981721C7E232260AB5522684FEABA
:10A830004903511C216059B2AB54994218BF48F0EA
:10A8400001086368013363600123019A0293781C55
:10A850002146FFF745FE00285BD00278292A58D10F
:10A86000029B002B3FF4ABAE002D00F0C7812368A4
:10A870007E22591C2160EA544FEA4909236809F1F4
:10A8800001094FFA89F15A1C2260494518BF48F066
:10A89000010805F803900BE72668002D00F04581BC
:10A8A000731C23604FF00103AB5523685A1C2260D0
:10A8B0003A78EA547FE6002D2FD023685122591CA4
:10A8C0002160EA54266876E6002D00F08580721C2F
:10A8D00005232260AB5523685A1C22607A78EA541B
:10A8E000E6E67C2BD8D1BBF1000F1CD145BB22681A
:10A8F000161DA6EB0A03023B59B2266002F1030BB8
:10A90000994218BF48F00108636802333846636013
:10A9100055E6002005B0BDE8F08F266801362660B8
:10A9200049E60025E7E52268A2EB0B03013B59B29B
:10A93000994218BF48F00108002DD9D005F80B3016
:10A940002268039805EB0A063146A2EB0A0256F08C
:10A9500051FA2368EA186021033323609170D4F818
:10A9600000B061230BF10102226005F80A30236870
:10A97000A3EB0A03023B73705AB226689A4218BFCF
:10A9800048F00108C0E7023222607B783F2B00F0DC
:10A990004181931B023B59B216463846994218BF73
:10A9A00048F0010884E6131D2360B21A043A79784E
:10A9B00050B2904218BF48F001083F2900F00581CD
:10A9C000991B02394AB28A4218BF48F001081E4654
:10A9D00038465FFA88F814E7B31C236068E64378CA
:10A9E000421C002B95D0002D6CD02768A3F1610C80
:10A9F00007F1010EC4F800E02F44BCF1150F0DD88B
:10AA0000DFE80CF00BB20C0C0C440C0C0C0C0C0C16
:10AA10000C410C0C0C3E0C3B0C3807233B7053785C
:10AA20002D2B7FF47EAE93785D2B3FF47AAE5C2BBA
:10AA300002F102007FF479AE43780130002B3FF43D
:10AA400068AF002D42D02268A3F1610702F1010C2A
:10AA5000C4F800C02A44152F1CD8DFE807F01A8874
:10AA60001B1B1B291B1B1B1B1B1B1B261B1B1B2315
:10AA70001B201B1D0B233B70D1E709233B70CEE746
:10AA80000D233B70CBE70A233B70C8E70C233B70D8
:10AA9000C5E70723137050E60B2313704DE6092317
:10AAA00013704AE60D23137047E60A23137044E639
:10AAB0000C23137041E60133236002462DE6013377
:10AAC00023603AE623680133236026E623680133D6
:10AAD000236032E6BB783A2B7FF49CAE002302372A
:10AAE0009946B2E6002D5BD0721C04232260AB5560
:10AAF000D4E9002301330132C4E90023BB785D2B84
:10AB000007F102007FF4F9AD002125E6002D53D0B6
:10AB10006123AB542368F61A023E72B2781C0133EB
:10AB2000B24218BF48F0010830E6B31C236042E58A
:10AB3000731C23603FE54FEA490359B2B21C9942A6
:10AB400018BF48F0010822607BE66223AB552368FA
:10AB50009B1B023B59B2994218BF48F00108781C70
:10AB600001365FFA88F84AE608233B7057E7082366
:10AB70001370E2E56368B21C0133C4E900237B78FB
:10AB80005D2B7FF4BAAD1AE5B31A023B59B23846D1
:10AB9000994218BF48F00108FAE507221A7087E5C4
:10ABA0006368B21C0133C4E90023BB785D2B07F155
:10ABB00002007FF4A2AD02E5B31A023B59B2781C41
:10ABC000994218BF48F00108E2E59A1B023A51B2D7
:10ABD000914218BF48F00108781C1E465FFA88F8B9
:10ABE0000FE66223AB5523689B1B023B5AB2781CCD
:10ABF00001369A4218BF48F0010857E522684FEA2B
:10AC00004903013359B20232994218BF48F0010892
:10AC100022604DE5931B023B59B2781C16469942BF
:10AC200018BF48F0010843E50B221A7040E50922DD
:10AC30001A703DE50D221A703AE50A221A7037E5BE
:10AC40000C221A7034E508221A7031E52DE9F04122
:10AC500005782F2D06460F4628D01B4BD3F8E02051
:10AC60002AB13860D3F8E0502846BDE8F08190461C
:10AC7000002DF9D0144BD3F8E45065B91BE02968D6
:10AC8000013156F02DF9321918B9335D2F2B16D03A
:10AC9000BBB1ED687DB16C68013C30462246EED117
:10ACA000A6EB08063E602846BDE8F0814FF001089B
:10ACB00045784644DCE701252846BDE8F0813A6046
:10ACC000D2E7024B3B60CFE7BC410120C010080037
:10ACD00030B5C3888288934285B0044611D3172AC1
:10ACE00016D90146012551F8080B009503AB18222F
:10ACF000FFF7E6FA039B80B2A0804BB940B12A4629
:10AD000001E05A1C92B22344E280187A05B030BDAB
:10AD10004FF0FF3005B030BD38B50446D0E900052E
:10AD2000954228BF15462A4656F036F8D4E9003237
:10AD30002B44521BC4E9003238BD00BFBFF34F8F14
:10AD40000549064BCA6802F4E0621343CB60BFF3C7
:10AD50004F8F00BFFDE700BF00ED00E00400FA05E3
:10AD600041DF704712DF704708B50748074BD3F83B
:10AD70000415D0E902234909521843F10003C0E940
:10AD80000223FFF7DBFF00BF2845012000400240FF
:10AD900030B40E4B1A68B2B10D4B002808BF1A46EA
:10ADA000131F02F13004C2F10402D51853F8041F36
:10ADB000814204D0A342F8D1002030BC704704483F
:10ADC000284430BC7047024AEAE700BF38440120FB
:10ADD000DC37012008B5074B1B78012B02D901286D
:10ADE00000D0FEE7044B054A43EA00209061FFF7DC
:10ADF000BBFF00BF1D3B0120AF0000AD2845012077
:10AE0000F8B5234ED6F80471002F3ED0C71BF909C0
:10AE1000D6F80001C7F30214435C0122A24023EAE2
:10AE2000020343544FEA971ED6F8F8403F0914F83E
:10AE30000E103846754607F003034FF0030C5B0015
:10AE40000CFA03F321EA030363550130D6F8F84006
:10AE5000850800F00303615D5A0041FA02F202F036
:10AE60000302022AEBD0C01B082828BF0820853027
:10AE700056F820309E45D6F8383238BF46F820E0E4
:10AE80009E4588BFC6F838E2F8BD0820FFF7A2FF4C
:10AE9000BC410120034BB3F8142212B908B1FFF7EB
:10AEA000AFBF7047BC41012008B50220FFF792FFF9
:10AEB00008B50120FFF78EFF7F292DE9F0410446F8
:10AEC0002ADDA1F18005592D0AD901F03F0161F079
:10AED0007F01C3234170037002263046BDE8F08134
:10AEE000FDB91A4F20214FF009082046FFF7E4FF73
:10AEF0000135002645452F4404440644EDD2204642
:10AF000017F8011BFFF7D8FF0135454504440644F7
:10AF1000F5D33046BDE8F081017001263046BDE82A
:10AF2000F0810B4B19445A5D11F8813C4FEA4508FA
:10AF300008F1020803EB45039044434503D2034F55
:10AF40001D46F95CD1E70026C7E700BFF4590900A8
:10AF5000905909002DE9F04F90F80090457883B0A2
:10AF600009F1010388460193B9F1000F34D01F4F56
:10AF700083464FF0000A072401264FF0000C60467C
:10AF800063466146490015F0800F03F1010306F1A5
:10AF9000010218BF41F00101DBB25CB9D6B207244F
:10AFA0001BF8065008B1814209D3FA5C02EB40005D
:10AFB0009444E7E76D00013CEDB2E4B2F2E761448E
:10AFC0000B4B091A08EB0A00595CFFF775FF504458
:10AFD0001FFA80FACA45D0DB019B43440022404659
:10AFE00003F8012C03B0BDE8F08F00BF8CAC080063
:10AFF0008853090070B50A4B0A4D0B4E01220021FF
:10B00000C3F800251643296064241A6002E0B047A3
:10B01000013C04D02B684FF42070002BF7D070BD9A
:10B020000090024000910240308E08002DE9F84364
:10B030000546C389047A008A89461FFA83F881B2DB
:10B04000002C32D1A8EB01038845AC889BB251D3C8
:10B05000E31A9FB2974228BF1746B5F806C03E468E
:10B060006B8943453DBFAB8943449BB2434601E0F6
:10B070001B1B9BB2A342FBD29A19A24221DC286877
:10B0800049460CFB030006FB0CF255F085FE6B896C
:10B0900046449E42C3BFAB894344DB1908EB070318
:10B0A0009BB2EB813846BDE8F883AC88A2421CD93C
:10B0B000B5F806C0E981161B0CFB06992746264603
:10B0C000CEE7E21A286894B20CFB04F20CFB0300F2
:10B0D000494655F061FEEB882868321B03FB04915A
:10B0E00003FB02F255F058FED1E7B5F806C016464C
:10B0F0001746B5E7A9895B1A9BB2A9E710B4C489C2
:10B10000018AA4B289B2631A8C42024698B202D272
:10B110009389C01A80B25DF8044B704710B4C1899E
:10B12000028A848889B292B28B1A91429BB202D26F
:10B1300080891B1A9BB2E01A80B25DF8044B7047FD
:10B1400083885B009BB20022591E5B42C281418111
:10B1500083810282012070472DE9F843DFF8AC902B
:10B16000264E274C274FDFF8A880372200210546BE
:10B17000484655F057FE4FF0FF322349C9F80320E7
:10B18000C9F80720C9F80B20C9F80F20C9F8132007
:10B19000C9F81720C9F81B20C9F81F20A9F82320D7
:10B1A0000022C1E90022C1E9022233780A619146F6
:10B1B000C4B14B4518D8A9EB0303DBB2032B1AD853
:10B1C0001BB203EB430307EBC3035B6828469847B6
:10B1D000337809F101095FFA89F9DA1C4A45E7DA9F
:10B1E000BDE8F8834B46E9E7D8F8003009EB49029F
:10B1F00003EBC203E9E700235B68FFDE6C07012075
:10B2000000000000884F0800A0190120D03601205E
:10B21000680701204DDF70474EDF70474FDF7047F2
:10B2200050DF7047102808B50BD80346064A084679
:10B2300042F8231055F02EFE044A1368184410609B
:10B2400008BD0F20FFF7C6FDD43A0120143B0120B2
:10B2500008B5054B027B40F6B80000FB0230FFF753
:10B260006FFF0E2008BD00BF94070120D0ED017ACA
:10B27000F5EEC07AF1EE10FA08D417EE903A23F00A
:10B28000030040F00200A0F1FF4070470E2070471D
:10B29000D0ED027AF5EEC07AF1EE10FA08D417EE8E
:10B2A000903A23F0030040F00200A0F1FF40704705
:10B2B0000E20704702488C22002155F0B3BD00BF1C
:10B2C000901A012002488C22002155F0ABBD00BF2E
:10B2D000901A012010B40B4B1C68002C10DD0A4B97
:10B2E000C4EBC40103EB810100205A8A1C338B425A
:10B2F0001044FAD1012C00D102385DF8044B70479C
:10B300000020FAE7903D0120B03C0120007D400084
:10B3100040F00100704700BF407D400040F0010058
:10B32000704700BF10B5084C002304F11000C4E9B9
:10B330000033C4E90233FFF703FF04F12400BDE842
:10B340001040FFF7FDBE00BFA01D01200020704788
:10B3500002484022002155F065BD00BF682F012042
:10B3600002484022002155F05DBD00BF682F01203A
:10B3700008B1002070470B4BD3F8E4000028F9D047
:10B380000346C0680028FBD19B68002BF2D01A6AE4
:10B39000002AEFD0988800F03000203818BF012034
:10B3A000704700BFBC410120FEE700BF61DF70476E
:10B3B0004BDF704710B40A4CD4F8DC3063B1DC3496
:10B3C00002E01C461B683BB19A688242F9D15A6878
:10B3D0008A42F6D11B6823605DF8044B704700BFBA
:10B3E000BC410120B1DF7047B2DF704770B4144C2C
:10B3F000144E05460020F0B14378FF2B18D0C388C7
:10B40000033323F0030308331844A04210D84378D1
:10B41000002BF0D09942EED1FF2907D0037803F03A
:10B420000103AB42E7D143889342E4D170BC70473B
:10B43000002070BC7047737802489942DBD1EBE77B
:10B44000FB1F0F0004A00E0029DF704728DF7047A4
:10B4500010B582B000238DF80730EFF310830D4C48
:10B4600023B100232370207802B010BD0DF1070036
:10B47000FFF778FC9DF80730002BF2D02378012BE2
:10B48000F1D1FFF76DFC2378012BFAD0207802B0C0
:10B4900010BD00BFA4440120074B10B501241C704F
:10B4A000FFF7D2FF08B1002010BDFFF7D1FF02382F
:10B4B00018BF012010BD00BFA4440120F0B500F169
:10B4C000080683B00D4614464FF0FF3702E0A4B2E1
:10B4D00004350436042C2246294628BF042201A83C
:10B4E000019755F059FC012201A93046FFF7D4FF1E
:10B4F000042CA4F10404EAD803B0F0BD42DF704785
:10B5000043DF704744DF704710B54FF0804386B08B
:10B51000D3F80443620705D5D3F8082103F58473F3
:10B52000002A4ED1A30603D52A4B1A68002A3FD120
:10B53000600603D5284B1A68002A2FD1210602D5B0
:10B54000264B1A680ABBE20502D5254B1A6892B948
:10B55000A3050ED5234B1A685AB100221A601A6847
:10B56000214B0592059A1B68022006B0BDE81040E9
:10B57000184706B010BD00221A601B4A1B680493CE
:10B5800001201368049A9847E2E700201860164AE1
:10B590001B6803931368039A9847D4E700221A6044
:10B5A000124A1B68029301201368029A9847C5E764
:10B5B000002018600D4A1B6801931368019A984790
:10B5C000B6E700221A600A4A1B6800931368009AC3
:10B5D0009847A7E714010040180100401C010040F3
:10B5E0002001004024010040B8410120B441012065
:10B5F000B041012090F82030FF2B0FD0827F6AB934
:10B60000C27FA2B11F2B8ABF0F494FF0A04103F0A8
:10B610001F03012202FA03F3C1F80C35002203468E
:10B620004277027253F8082B4168184610471F2BC7
:10B630008ABF05494FF0A04103F01F03012202FA1F
:10B6400003F3C1F80835E9E700030050F0B40379CB
:10B650002F4D03EBC30205EB820194000A7F002A01
:10B660004DD02A59D900002A4BD0026842F3073640
:10B67000002E4FEA123711DB7609DFF8A8C020361A
:10B68000012207F01F0702FA07F74CF82670BFF3F4
:10B690004F8FBFF36F8F2C59026894B1C8181D4C9F
:10B6A000C2F8084305EB8000407F50B10120506193
:10B6B000D2F804010028FBD0C81805EB8000002454
:10B6C0004477C81805EB800090F82100FF280BD0C4
:10B6D0001F2886BF00F01F000F4E4FF0A04600F558
:10B6E000E070022446F820400C4800248242C2F850
:10B6F000004508D00B4405EB830300221A77F0BC09
:10B7000070470268DDE7064A01201060F2E700BFDB
:10B7100004400120520108000003005000F00240E4
:10B7200004F0024000E100E0084BD3F8182102B910
:10B730007047002282B0C3F81821D3F81831019362
:10B74000019B034802B0FFF755BF00BF00F0024065
:10B7500028400120F0B505793C4E05EB450406EB89
:10B76000840783B03B7A002B6CD1A4004FEA450CD0
:10B7700032514A687A6042797AB11A461F469B0074
:10B78000046803F5A0730132E750E358447901934C
:10B79000D3B29C42DDF804E0F1D80268CB7842F3E2
:10B7A0000734002C4FEA123244DB04F1604404F504
:10B7B00061445B01DBB284F80033026842F3073373
:10B7C000002B4FEA12340DDB5B099B0003F1604351
:10B7D00003F5614304F01F040122A240C3F8802155
:10B7E0001A600268D2F804454B7824F0030403F091
:10B7F00003032343C2F8043504688B78D4F8082582
:10B8000003F0030322F003021343C4F8083504686D
:10B810000B78D4F810250E48654406EB850622F017
:10B820000F0203F00F03012113433172C4F81035E6
:10B8300003B0F0BD074C02F00F025B011444DBB211
:10B840002376BAE7044803B0F0BD00BF4C400120A6
:10B850000000AD0BFCEC00E00500AD0B03791D4AC8
:10B8600003EB430302EB83031B7A8BB3036843F3BD
:10B870000731002930B44FEA13340EDB4909164D65
:10B880002031012304F01F0403FA04F445F8214099
:10B89000BFF34F8FBFF36F8F0368D3F800120021FF
:10B8A000C3F8001203684FF0FF34C3F8084303687D
:10B8B00001241C61037903EB430302EB83031C7235
:10B8C000037903EB430302EB8302117230BC704730
:10B8D000704700BF4C40012000E100E00F4B984250
:10B8E00018D003F10802904216D003F110029042E2
:10B8F00005D01833984208BF032201D070470222B6
:10B90000074910B40023074C8B54A3545DF8044B33
:10B91000FFF7A4BF0022F3E70122F1E7B8020120FC
:10B9200034440120304401200A7B0346032A11D805
:10B93000DFE802F0121E24028868194A904228D0DB
:10B94000886840F20222904204D14969D3F84C251C
:10B95000914206D1012070470969D3F84C259142E4
:10B96000F8D000200622C3F80005C3F80025704770
:10B970000969D3F83C259142F3D1EBE7D3F84C2584
:10B9800008699042EDD14969D3F83C259142E8D14C
:10B99000E0E7D3F84C2508699042E2D1D0E700BF38
:10B9A000000204002DE9F0411646002280F82E2006
:10B9B000F26802F06042B2F1005F88B035D198467B
:10B9C000924BC1F8083390F82F3005460C4603F02F
:10B9D000FF0E002B40F0CC80012380F82F30B446BE
:10B9E000BCE80F0005F10C070FC7DCF800303B6026
:10B9F00085F830E07378C4F88835C4F804E1D4F8E9
:10BA000004310193019BC4F824E1D4F8243100935C
:10BA1000009BC4F850E5C4F840E53378032B00F2EE
:10BA2000EF80DFE803F045718507794E304608B0B6
:10BA3000BDE8F081336903F06043B3F1005FF4D1F6
:10BA40004FF48073C4F80032F3687268C4F8443568
:10BA50000023C4F84825C4F85031D4F8502104928A
:10BA6000049AC4F86031D4F860210392039AC4F8B0
:10BA70004831D4F8483102930123029A2362A3602B
:10BA8000D4F85031002BFBD00023C4F85031D4F847
:10BA900050310593B26831695E4B0598C4F844157E
:10BAA000C4F84825AB6033784FF4827108221CE05B
:10BAB0007368F268C4F84425C4F84835B8F1000F3B
:10BAC00000F08B804FF48073C4F80032514AAA60B2
:10BAD0000023C4F84831D4F848310693069B4FF44C
:10BAE000A4710123236233780822032B4A4E01D02C
:10BAF0000123A3502B68002B42D0AB68C4F8043359
:10BB0000304608B0BDE8F0817368F268C4F83425A7
:10BB10004FF48051C4F8383540F202220123C4F8B2
:10BB20000012AA60236233784FF482710022DCE7AE
:10BB30007368F268C4F84425C4F84835336903F0E3
:10BB40006042B2F1005F7FF470AFB068C4F8343582
:10BB50004FF4845140F202220123C4F83805C4F89E
:10BB60000012AA60236233784FF482710822BCE786
:10BB70002A4E8368C1F80433304608B0BDE8F0812E
:10BB80000120214402E0D4F82421DAB90B68002B0B
:10BB9000F9D0D4F8C434C4F8C434002285F82F2076
:10BBA0002BB31F481F49204E204A13F0010F18BF26
:10BBB000064613F0020F18BF0E4613F0040F18BF0D
:10BBC000164633E7C4F82431D4F824310793079B91
:10BBD00020624FF482716061D3E74FF4007240F24B
:10BBE0000223C4F800224FF48271AB6079E7294642
:10BBF0002046FFF799FE0C4B002808BF1E4615E7AC
:10BC00000B4E4FF48271082272E700BF02029C01C2
:10BC10000A00AD0B000204000000AD0B0B00AD0BE1
:10BC20000000AE0B0100AE0B0100AD0B0200AE0B2D
:10BC30000400AD0BF0B5D0F824318DB004460D46AC
:10BC400053B10023C0F82431D0F824310193019B73
:10BC5000D0F80431002B74D0D4F80431002B3AD042
:10BC60000023C4F8043105F10C070FCF07AE0FC64F
:10BC7000D4F8041195F82E303A6802913260029A95
:10BC8000002B7FD00023C4F86031D4F860210492E7
:10BC9000049AC4F85C31D4F85C2195F830300392F2
:10BCA000039A002B3ED095F82E30002B3AD1D4F8D1
:10BCB000C434C4F8C4349A072DD501238DF8183044
:10BCC00095F830300BB985F82F30D5E9003106A84A
:10BCD00098470DB0F0BDC4F84831D4F848212B7B0B
:10BCE0000592059A002B3BD105F10C070FCF07AE4B
:10BCF0000FC695F830303A683260002BD7D1274A0A
:10BD0000C4F80032AB60C4F80823D4F8C434C4F8D3
:10BD1000C4349A07D1D413F0050F0BD002238DF849
:10BD20001830CDE700231D4AC4F80032AB60C4F8D8
:10BD30000823BCE795F82E306BB304238DF8183038
:10BD4000BEE78B68C0F8083302238B608B68C0F8AD
:10BD5000043301230362436181F82E300DB0F0BD3E
:10BD60000E4B4FF4007140F20222C4F80012AA6098
:10BD7000C4F80833AB68C4F804330123A36023621A
:10BD80000DB0F0BD29462046FFF7CEFD80F0010042
:10BD900085F82E0076E78DF8183091E702029C01B5
:10BDA000F0B403793349342202FB03F28C1894F87F
:10BDB0002D40002C56D08A58002A55D0026842F3F4
:10BDC0000734002C4FEA123551DB64092A4E203427
:10BDD000012205F01F0502FA05F546F82450BFF3CD
:10BDE0004F8FBFF36F8F05790268244F342404FB13
:10BDF0000515002604FB0314AE60C2F8087394F81E
:10BE00003270D2F800424FF0010C24F4BC54C2F856
:10BE1000004285F82DC0C2F80065EFB90268D2F87B
:10BE200008251F2A86BF02F01F02154C4FF0A044C0
:10BE300002F5E072022544F822500268D2F80C257F
:10BE40001F2A86BF02F01F020D484FF0A04002F5E6
:10BE5000E072022440F82240342202FB0313002245
:10BE600083F82D20F0BC704702681D46BDE71D46D3
:10BE7000BBE700BF6440012000E100E002029C013A
:10BE80000003005010B40C4C027903680B493420B5
:10BE900000FB024200209060C3F80813D3F80012A0
:10BEA000012421F4BC51C3F8001282F82D40C3F8DC
:10BEB00000055DF8044B70476440012002029C01BC
:10BEC00001490248FFF7B6BE64400120003000403F
:10BED00002494FF04020FFF7ADBE00BF984001205F
:10BEE00070B5D0F824318AB004460D46002B6AD0D4
:10BEF0000023C0F82431D0F824210192019AD0F80F
:10BF00008024C0F88024D0F83C05C9680992C5E9AE
:10BF10000633022208900791D5E9001306A88DF890
:10BF200018209847D4F844314BB10023C4F8443169
:10BF3000D4F84411AA6903910399002A34D1D4F8A2
:10BF4000203153B10023C4F82031D4F820210492C9
:10BF500001220499E2606A69CAB9D4F85831A3B1E0
:10BF60000023C4F85831D4F858210592059A6A691B
:10BF70005AB1D4F84C15AA6808918DF818306B6145
:10BF80000792D5E9001306A898470AB070BDD4F807
:10BF90004C15AA688DF8183008916B610792D5E9A5
:10BFA000001306A89847D8E7C5E90633D4F83C350E
:10BFB000EA68089301238DF818300792D5E9001339
:10BFC00006A89847BBE7D0F81021002AAAD0C0F8ED
:10BFD0001031D0F810210292029A8A69D0F83C15EB
:10BFE0008A429FD1E96979B1D0F80012EE680892CF
:10BFF00021F02001C0F80012E86929690796C5E917
:10C0000006030122E96087E7E868A9610123CDE919
:10C0100007028DF8183006A8D5E90013984781E784
:10C02000F0B501794C4C01EBC10304EB830383B001
:10C0300093F82020002A00F08C805B68CF00C3B109
:10C040000368464AC3F80823036843F30732002A0B
:10C050004FEA13350EDB5209414E2032012305F021
:10C060001F0503FA05F546F82250BFF34F8FBFF3C3
:10C070006F8F0368D3F8002222F02002C3F8002259
:10C0800002680123536002680025C2F85851D2F8B3
:10C09000585102680195019DD3600268D2F8583169
:10C0A000002BFBD00023C2F8003503684FF0FF3EA1
:10C0B000D3F80CC5D3F81465D3F80825D3F8105578
:10C0C000C3F80CE5C3F814E50368F445C3F808E5C4
:10C0D000C3F810E50CD0BCF11F0F86BF0CF01F0C8D
:10C0E000204B4FF0A0430CF5E07C022043F82C00DD
:10C0F000731C0BD01F2E86BF06F01F06194B4FF086
:10C10000A04306F5E076022043F82600681C0BD019
:10C110001F2D86BF05F01F05124B4FF0A04305F5FC
:10C12000E075022043F82500531C0BD01F2A86BF60
:10C1300002F01F020B4B4FF0A04302F5E072022009
:10C1400043F82200394404EB8104002384F82030B2
:10C15000636003B0F0BD00BFCC400120100342007B
:10C1600000E100E00003005001490248FFF7B8BEBB
:10C17000CC4001200020004001490248FFF7B0BE3A
:10C18000F040012000800240F0B4464F3B1893F984
:10C190002830002B03DB444AF0BC1046704791F86E
:10C1A00002C0CCF3400CBCF1000F0CBF08230023ED
:10C1B00007EB8304A4F104040CBF0A26082602E05E
:10C1C00001339E424ED954F8045F0135F8D13C1832
:10C1D00047F8232084F82830BCF1000F02D1FA1868
:10C1E00082F850008A7854071CD4D6074BD51F28F4
:10C1F00087BF2E4A00F01F0404464FF0A04202EB16
:10C200008402D2F8004724F00204C2F80047284D07
:10C21000C40800F0070C2E5D012202FA0CF2324332
:10C220002A558A78950721D59B0003F1804303F5B1
:10C23000C0430C78D3F810551E4A25F44F3525F429
:10C240004075C3F810552404010201F47C5104F434
:10C250004030D3F8104501432143C3F81015104670
:10C26000F0BC7047144AF0BC10467047083B1F44AE
:10C27000097897F858300F4A43EA811387F8583005
:10C280001046F0BC70471F284A7887BF074D00F062
:10C290001F0404464FF0A04504F5E074920045F8F1
:10C2A0002420B4E7144101200B00AD0B0003005023
:10C2B0006E4101200000AD0B0200AD0B174B034493
:10C2C00093F92830072B0FDD1F288ABF144B4FF03E
:10C2D000A04300F01F0003EB8000D0F8003723F4E8
:10C2E0004033C0F800377047DAB2072A14D810B4C8
:10C2F0009A0002F1804202F5C0420A4CD2F81005C1
:10C30000012120F0010001FA03F3C2F81005C4F87E
:10C3100008335DF8044B7047704700BF144101209B
:10C32000000300500060004070B50446FFF7C6FFF0
:10C330002C48031993F92820D3B2072B3ED82A4959
:10C3400002F5A272002541F8225000F15A02E108DC
:10C3500004F00706555CF540ED0702EBD40224D546
:10C360001F2C8BBF04F01F052546204B4FF0A04328
:10C3700005F5E075022143F8251001231178B3403B
:10C3800021EA03010319117093F828304FF0FF32AE
:10C39000072B40F8232003D90344FF2283F85020C1
:10C3A0002044FF2380F8283070BD4FF0FF3240F862
:10C3B00023202044FF2380F8283070BD00F15A026A
:10C3C000E10804F00706515CF140C90702EBD40212
:10C3D000C6D44FF0FF3240F823200344FF2283F8F5
:10C3E0005020DDE7144101200060004000030050B0
:10C3F0002DE9F8431E4C04F13006654204F1330781
:10C40000A4F127096FEA040805E0002B01DBFFF720
:10C410008BFFA64226D0281914F9013F9A1CF4D1AB
:10C42000FF23C2082370BB5C00F00701CB40DB0791
:10C4300008EB040CEDD5BCF11F0F86BF00F01F0008
:10C44000DFF830E04FF0A04E00F5E0704FF0020C46
:10C450004EF820C001238B40B95CA64221EA0301BB
:10C46000B954D8D1002389F86030BDE8F88300BF03
:10C470003B410120000300502DE9F04F002289B01C
:10C480006E4B6F4C6F48CDE90222164615460122CD
:10C49000196841B1D4F80413114204D01D60196821
:10C4A000009100991643043383424FEA4202EFD1D0
:10C4B000654B1A68002A00F0A98000221A601B68E8
:10C4C00001934FF0A042019BD2F810255F4B0292DE
:10C4D000D3F81035039316F0FF0F48D100224FF028
:10C4E000FF335B4FDFF864A1CDE90622CDE90433C9
:10C4F000A7F15A09574C002514F9010B461C30D0FE
:10C50000C0F3C20E08AB03EB0E0C00F007021CF8E0
:10C51000103CD340D907C6B200F03F0021D509EB4B
:10C520000003B10993F9283059F82330002B5CD06F
:10C5300003295CD01F288BBFD6464FF0A04E06F0D3
:10C540001F0606461CF818CC0EEB86062CFA02F2E3
:10C55000D6F800E7D207CEF3014E3DD4BEF1030F6B
:10C560005AD0A742C8D125BB09B0BDE8F08F46F02C
:10C570000046394F01250024A30003F180432E42D9
:10C5800003F5C0434FEA45050BD0D3F8100557F823
:10C590002420D3F81015C0F30520C1F3014102B1E6
:10C5A00090470134082CE7D1002E97DB09B0BDE895
:10C5B000F08F4FF0A0430299D3F81035DAF8102528
:10C5C000994202D103999142CED0DDE90601CDE92D
:10C5D0000232CDE904018DE7BEF1020FC1D103297A
:10C5E00029D0002BBDD09847BBE70329B9D10DF165
:10C5F00018084FF0010B18F80E800BFA02FB48EAFE
:10C600000B080DF1180B0BF80E8093E716F0FF0FD7
:10C61000AFD1002ECADA61E70329E2D14FF4003C22
:10C62000D6F8002722F44032013542EA0C02EDB27E
:10C63000C6F80027D5E74FF4403CF1E70061004021
:10C6400000600040206100407C6100400003005019
:10C650006E4101206C410120144101202DE9F04F71
:10C660000024DFF8A4B085B006468A46174600F5D8
:10C67000A078A1464FF48035D6F804332B4210D071
:10C6800058F82430E0B263B1C6F84853C6F80853EE
:10C6900048F8249058F8243001935BF82A30019A26
:10C6A00098470134A7424FEA4505E5D1D6F804334F
:10C6B000DA0702D5D6F80031C3B9D6F804339B07A0
:10C6C00011D5D6F8043173B10023C6F80431D6F879
:10C6D00004210D4B0392039A53F82A30052005B02C
:10C6E000BDE8F04F184705B0BDE8F08F0023C6F84D
:10C6F0000031054BD6F80021029253F82A30029AF5
:10C7000004209847D9E700BFA44101200248032232
:10C710000021FFF7A3BF00BF00B000400248042281
:10C720000121FFF79BBF00BF001001400248042217
:10C730000221FFF793BF00BF0040024010B5074C35
:10C74000236882B03BB1064B5B68984700232360A7
:10C7500023680193019B02B010BD00BF000101409E
:10C760008441012013494B79A3B910B4124A03F054
:10C77000FF0414600B687BB100F180430F4C10483C
:10C7800003F5243301224A71C4F804231A605DF8CA
:10C79000044B70470B48704700F1804000F524308F
:10C7A000012303601368002BFCD005485DF8044B9F
:10C7B000704700BF8C410120009102400090024070
:10C7C0000000AD0B0B00AD0B054B1A6832B1054AEA
:10C7D000002050711860136891681847704700BFB7
:10C7E000009102408C4101206CDF70476DDF704783
:10C7F00070DF704772DF704773DF704774DF704718
:10C8000075DF704777DF704778DF70477ADF7047F2
:10C810007BDF70477CDF70477DDF70478ADF7047C2
:10C820008BDF70478CDF70478FDF704790DF70477A
:10C83000A5DF704760DF704769DF704767DF7047CB
:10C8400010DF704711DF70470388102B06D01B2BB9
:10C8500002D10120887070470020704783880B80C8
:10C8600001208870704700BF08B50A20FEF7B2FAB1
:10C8700031291DD8102918D91139202914D8DFE8F9
:10C8800001F01E2113131313131313131313131394
:10C890001313241113131313131313131313131359
:10C8A00013131B0022230370704721B901707047D6
:10C8B0004129FBD070477047312303707047112323
:10C8C0000370704712230370704721230370704771
:10C8D000A3DF7047ABDF7047ADDF7047AEDF704757
:10C8E0004368014613B10248FEF764BD704700BFBC
:10C8F00041AE030076DF70477EDF70477FDF704711
:10C9000086DF70479BDF70479DDF70479EDF704773
:10C91000B5DF7047406828B100884FF6FF73C01A32
:10C9200018BF0120704700BF406840B1406830B177
:10C9300083791BB1C06810B1FFF7ECBF01207047CD
:10C94000B0F8760008B1033870471420704700BF74
:10C9500018B143680BB1188870474FF6FF707047E5
:10C96000A4DF704770B50446408C94F8283086B038
:10C9700080B233B394F8263094F827208DF808203D
:10C9800006330022656854F82310CDF809208DF88D
:10C990000D20AA8A238C049102A9ADF80A20ADF8D3
:10C9A0000E30FFF795FF50B994F8263020840133FC
:10C9B00003F00103012284F8263084F8292006B010
:10C9C00070BD94F826206168268C898A94F82750D7
:10C9D000ADF80810063202A954F8222005920DF194
