:020000022000DC
:1060000000000420CD860700E1B802001546030019
:10601000E1B80200E1B80200E1B8020000000000AF
:10602000000000000000000000000000E1B80200D5
:10603000E1B8020000000000E1B80200E1B802008F
:1060400091BE0200E1B80200A1CA020009C8020024
:1060500019C80200E1B8020029CD0200E1B802002F
:10606000E1B80200B92F0300A12F03009DCF020069
:10607000E1B80200E1B80200E1B80200E1B80200B4
:10608000CDCF0200ADCF0200E1B80200E1B80200BE
:10609000E1B80200E1B80200F9F70600E1B8020039
:1060A000E1B80200E1B80200E1B80200E1B8020084
:1060B000E1B80200E1B802000000000000000000AA
:1060C000E1B80200E1B80200E1B802006557030040
:1060D000BDCF0200E1B80200E1B8020045C20300F2
:1060E000B1CA020059D00200E1B8020095C0020016
:0860F00000000000E1B802000D
:1070000040F8044B40F8045B40F8046B40F8047B04
:1070100040F8048B40F8049B40F804AB40F804BBF4
:1070200040F804CB40F804DB6846704781F000412B
:1070300002E000BF83F0004330B54FEA41044FEA5D
:10704000430594EA050F08BF90EA020F1FBF54EAF8
:10705000000C55EA020C7FEA645C7FEA655C00F094
:10706000E2804FEA5454D4EB5555B8BF6D420CDD65
:107070002C4480EA020281EA030382EA000083EAE8
:10708000010180EA020281EA0303362D88BF30BD88
:1070900011F0004F4FEA01314FF4801C4CEA1131DE
:1070A00002D0404261EB410113F0004F4FEA03333D
:1070B0004CEA133302D0524263EB430394EA050FC8
:1070C00000F0A780A4F10104D5F1200E0DDB02FA37
:1070D0000EFC22FA05F2801841F1000103FA0EF2CB
:1070E000801843FA05F359410EE0A5F120050EF191
:1070F000200E012A03FA0EFC28BF4CF0020C43FAC2
:1071000005F3C01851EBE37101F0004507D54FF0CE
:10711000000EDCF1000C7EEB00006EEB0101B1F51E
:10712000801F1BD3B1F5001F0CD349085FEA300064
:107130004FEA3C0C04F101044FEA445212F5800F6F
:1071400080F09A80BCF1004F08BF5FEA500C50F10C
:10715000000041EB045141EA050130BD5FEA4C0CEF
:10716000404141EB0101013C28BFB1F5801FE9D24C
:1071700091F0000F04BF01460020B1FA81F308BF6F
:107180002033A3F10B03B3F120020CDA0C3208DD3B
:1071900002F1140CC2F10C0201FA0CF021FA02F116
:1071A0000CE002F11402D8BFC2F1200C01FA02F186
:1071B00020FA0CFCDCBF41EA0C019040E41AA2BFAB
:1071C00001EB0451294330BD6FEA04041F3C1CDA73
:1071D0000C340EDC04F11404C4F1200220FA04F093
:1071E00001FA02F340EA030021FA04F345EA03013D
:1071F00030BDC4F10C04C4F1200220FA02F001FAFF
:1072000004F340EA0300294630BD21FA04F0294680
:1072100030BD94F0000F83F4801306BF81F4801119
:107220000134013D4EE77FEA645C18BF7FEA655C8C
:1072300029D094EA050F08BF90EA020F05D054EA5E
:10724000000C04BF1946104630BD91EA030F1EBF63
:107250000021002030BD5FEA545C05D14000494167
:1072600028BF41F0004130BD14F580043CBF01F55A
:10727000801130BD01F0004545F0FE4141F4700140
:107280004FF0000030BD7FEA645C1ABF194610461B
:107290007FEA655C1CBF0B46024650EA013406BF1C
:1072A00052EA033591EA030F41F4002130BD00BFDB
:1072B00090F0000F04BF0021704730B54FF4806498
:1072C00004F132044FF000054FF0000150E700BF19
:1072D00090F0000F04BF0021704730B54FF4806478
:1072E00004F1320410F0004548BF40424FF0000165
:1072F0003EE700BF42004FEAE2014FEA31014FEAA8
:1073000002701FBF12F07F4393F07F4F81F06051F6
:10731000704732F07F4208BF704793F07F4F04BF41
:1073200041F40021704730B54FF4607401F000451E
:1073300021F000411CE700BF50EA010208BF70477E
:1073400030B54FF000050AE050EA010208BF70476F
:1073500030B511F0004502D5404261EB41014FF4D8
:10736000806404F132045FEA915C3FF4D8AE4FF0E0
:1073700003025FEADC0C18BF03325FEADC0C18BFC3
:10738000033202EBDC02C2F1200300FA03FC20FA14
:1073900002F001FA03FE40EA0E0021FA02F1144461
:1073A000BDE600BF4FEA4102B2F1E04324BFB3F5AE
:1073B000001CDCF1FE5C0DD901F0004C4FEAC0026C
:1073C0004CEA5070B2F1004F40EB830008BF20F050
:1073D0000100704711F0804F21D113F13872BCBF0A
:1073E00001F00040704741F480114FEA5252C2F15F
:1073F0001802C2F1200C10FA0CF320FA02F018BFA8
:1074000040F001004FEAC1234FEAD32303FA0CFCFA
:1074100040EA0C0023FA02F34FEA4303CCE77FEA89
:10742000625307D150EA01331EBF4FF0FE4040F4D3
:107430004000704701F0004040F0FE4040F4000082
:10744000704700BF53B94AB9002908BF00281CBFC4
:107450004FF0FF314FF0FF3000F0B8BAADF1080C3B
:107460006DE904CE00F026F8DDF804E0DDE9022342
:1074700004B07047D0B5FFF73DFF0C4B0022064625
:107480000F4600F079F900F0A3FA0446FFF710FF69
:10749000074B002200F070F902460B463046394691
:1074A000FFF7C8FD00F094FA2146D0BD0000F03D82
:1074B0000000F0412DE9F047089D04468C46002B62
:1074C00040F083808A42174647D9B2FA82F242B12D
:1074D000C2F1200024FA00F09140974040EA010CEC
:1074E00094404FEA1748230CBCFBF8F61FFA87FEBE
:1074F00008FB16C143EA014306FB0EF1994209D984
:10750000FB1806F1FF3080F01981994240F2168194
:10751000023E3B445B1AA4B2B3FBF8F008FB103305
:1075200044EA034400FB0EFEA64509D93C1900F1CC
:10753000FF3380F00581A64540F2028102383C44C9
:1075400040EA0640A4EB0E0400261DB1D4400023FF
:10755000C5E900433146BDE8F08702B9FFDEB2FA63
:1075600082F2002A50D1CB1B4FEA174E1FFA87F840
:107570000126B3FBFEFC210C0EFB1C3341EA034148
:1075800008FB0CF38B4207D979180CF1FF3002D2BB
:107590008B4200F2E9808446C91AA3B2B1FBFEF027
:1075A0000EFB101143EA014408FB00F8A04507D97F
:1075B0003C1900F1FF3302D2A04500F2D9801846F1
:1075C000A4EB080440EA0C40BFE78B4209D9002D28
:1075D00000F0B1800026C5E9000130463146BDE823
:1075E000F087B3FA83F6002E4AD18B4202D382424F
:1075F00000F2B880841A61EB030101208C46002D53
:10760000A8D0C5E9004CA5E7C2F1200320FA03F693
:10761000974001FA02F04FEA174ED9403043030C6D
:10762000B1FBFEF61FFA87F80EFB161143EA014381
:1076300006FB08F1994204FA02F409D9FB1806F195
:10764000FF3C80F08D80994240F28A80023E3B44AC
:107650005B1A81B2B3FBFEF00EFB103341EA03412B
:1076600000FB08F38B4207D9791800F1FF3C73D275
:107670008B4271D902383944CB1A40EA064678E782
:10768000C6F1200C03FA06F422FA0CF31C4320FA8C
:107690000CF701FA06F34FEA144E21FA0CF11F43DE
:1076A0003B0CB1FBFEF91FFA84F80EFB191143EAFB
:1076B000014109FB08FA8A4502FA06F200FA06F3CC
:1076C00008D9611809F1FF3048D28A4546D9A9F195
:1076D00002092144A1EB0A01BFB2B1FBFEF00EFB8F
:1076E000101147EA014700FB08F8B84507D9E71928
:1076F00000F1FF312ED2B8452CD90238274440EA98
:107700000940A7EB0807A0FB02894F45C64649463A
:107710001AD317D05DB1B3EB0E0267EB010707FA7E
:107720000CFCF2404CEA0202F740C5E900270026B3
:107730003146BDE8F0872E4628460BE70646E9E6C7
:107740001846FDE64345E5D2B8EB020E69EB0401AD
:107750000138DFE70846D2E760468DE78146B9E7A2
:10776000664675E730464AE7ACF1020C394413E748
:1077700002383C4424E700BF70B54FF0FF0C4CF4D6
:10778000E06C1CEA11541DBF1CEA135594EA0C0F5F
:1077900095EA0C0F00F0DEF82C4481EA030621EA9A
:1077A0004C5123EA4C5350EA013518BF52EA0335D5
:1077B00041F4801143F4801338D0A0FB02CE4FF087
:1077C0000005E1FB02E506F00042E0FB03E54FF0B7
:1077D0000006E1FB03569CF0000F18BF4EF0010EAF
:1077E000A4F1FF04B6F5007F64F5407404D25FEAAB
:1077F0004E0E6D4146EB060642EAC62141EA55515E
:107800004FEAC52040EA5E504FEACE2EB4F1FD0C9F
:1078100088BFBCF5E06F1ED8BEF1004F08BF5FEA1D
:10782000500E50F1000041EB045170BD06F00046CF
:1078300046EA010140EA020081EA0301B4EB5C047C
:10784000C2BFD4EB0C0541EA045170BD41F4801174
:107850004FF0000E013C00F3AB8014F1360FDEBF99
:10786000002001F0004170BDC4F10004203C35DA75
:107870000C341BDC04F11404C4F1200500FA05F3F8
:1078800020FA04F001FA05F240EA020001F0004299
:1078900021F0004110EBD37021FA04F642EB06010F
:1078A0005EEA430E08BF20EAD37070BDC4F10C0439
:1078B000C4F1200500FA04F320FA05F001FA04F2FD
:1078C00040EA020001F0004110EBD37041F10001E9
:1078D0005EEA430E08BF20EAD37070BDC4F12005F4
:1078E00000FA05F24EEA020E20FA04F301FA05F25C
:1078F00043EA020321FA04F001F0004121FA04F204
:1079000020EA020000EBD3705EEA430E08BF20EAD3
:10791000D37070BD94F0000F0FD101F0004640000D
:1079200041EB010111F4801F08BF013CF7D041EA8F
:10793000060195F0000F18BF704703F00046520093
:1079400043EB030313F4801F08BF013DF7D043EA64
:107950000603704794EA0C0F0CEA135518BF95EA1A
:107960000C0F0CD050EA410618BF52EA4306D1D1A1
:1079700081EA030101F000414FF0000070BD50EAC0
:10798000410606BF1046194652EA430619D094EA4A
:107990000C0F02D150EA013613D195EA0C0F05D134
:1079A00052EA03361CBF104619460AD181EA030188
:1079B00001F0004141F0FE4141F470014FF0000040
:1079C00070BD41F0FE4141F4780170BD704700BFC9
:1079D0004A0011D212F5001211D20DD56FF478734E
:1079E000B3EB62520ED44FEAC12343F0004343EAA3
:1079F000505323FA02F070474FF00000704750EAEE
:107A0000013002D14FF0FF3070474FF00000704757
:107A1000024BDA691268DA61704700BF4C36012008
:107A2000C460056146618761C0F81C80C0F8209081
:107A3000C0F824A0C0F828B0C0F82CD080ED0C8B82
:107A400080ED0E9B80ED10ABC0F808E047F046BD1E
:107A50002DE9F0412A4C00250326D4F8F8700021C6
:107A6000013143189A0803F00303BA5C5B0042FA41
:107A700003F303F00303022BF2D0D4F8043109011D
:107A80008A0803EB001089B300EB82020368190730
:107A900029D1D4F80411994225D8D4F808719F420D
:107AA00021D95B1A48BF0F331B11D4F8F8E04FEA15
:107AB000930C03F003011EF80C80490048FA01F70B
:107AC00007F00307012F0ED106FA01F141EA080180
:107AD00004EB85083F2D0EF80C109ABF0135C8F84D
:107AE0001431C4F8107104309042CFD12DB1013D52
:107AF00004EB8503D3F81401AFE7BDE8F08100BFC4
:107B00004C360120124BD3F80421824217D8D3F807
:107B10000811884213D230B4801A48BF0F300011C8
:107B2000D3F8F840810800F00303655C5B0045FA78
:107B300003F202F00302012A02D030BC7047704702
:107B4000032202FA03F31D43655430BCFFF780BFE4
:107B50004C360120174AD2F80431834219D8D2F8A2
:107B60000811884215D210B4C01A48BF0F30031153
:107B7000D2F8F8409A0803F00301A25C49000A41D8
:107B800002F00302012A4FF0000004D05DF8044B1C
:107B900070470020704701301A18910802F0030264
:107BA000615C520041FA02F202F00302022AF2D0B2
:107BB0000001EBE74C360120030701D1FFF7A2BF1C
:107BC000704700BF61B138B5041F04EB810554F85C
:107BD000040F030701D1FFF795FFA542F7D138BD88
:107BE000704700BF2DE9F0473B4CD4E94112002318
:107BF000C0E90233C0E90433521AC0E900231D462C
:107C000083619C461F4619461A469A4699469E46E7
:107C1000D4F8F86016F80A304FEA490943FA09F334
:107C200003F00303012B4DD0022B47D0002B3ED095
:107C3000D4F8FC600132B2EB860F4FEA86080FD011
:107C4000D4F8F8604FEA920A02F0030916F80A30F5
:107C50004FEA4906334113F0030301D0012BD7D17A
:107C6000012911D0022902D146690136466186698F
:107C70008E4238BF816190450FD0012B26D04FEA4C
:107C8000920A02F00309C3E70669013606618669B4
:107C90008E4238BF81619045EFD1774500D9C760EA
:107CA0002D014FEA0C13C0E90153BDE8F0870CF138
:107CB000010CC0F808C001371946B9E70135456025
:107CC0000131B5E7013545601946B1E7BE4501D23E
:107CD000C760BE460027D2E74C360120030701D11A
:107CE000FFF738BF0020704721F00F0370B51B4A23
:107CF0001B4D1C1AE400A2FB0424640A0219A3EB26
:107D00008416C5F8002100212246C5E94163C5E972
:107D10003E0454F005FEA2000732D2080021D5F837
:107D2000000154F0FDFD2022002105F5067054F0FD
:107D3000F7FDD5F8FC20D5F80431501E03EB821373
:107D400001210022C5F83802C5F80C3185F8161259
:107D5000A5F81422C5F83C2270BD00BFF32C23FA0D
:107D60004C360120014488420ED241F2055310F8EE
:107D7000012B03EB4313814283EA0203F7D1D8B20C
:107D8000012838BF0120704705207047074B1B6A48
:107D90005A68904203D21B685A689042FBD3821AF9
:107DA000043253F822301878704700BF4C36012057
:107DB000074B1B6A5A68824203D91B685A68904273
:107DC000FBD3821A043253F822305878704700BF30
:107DD0004C360120074B1B6A5A68904203D21B683D
:107DE0005A689042FBD3821A043253F822000230C0
:107DF000704700BF4C360120084B1B6A5A6882420C
:107E000003D91B685A689042FBD3821A043253F894
:107E1000220043780B600230704700BF4C360120CF
:107E20002DE9F04F894601464844814283B043D250
:107E30000B4641F2055613F8012B06EB4616984205
:107E400086EA0206F7D1F6B2012E38BF01261B4B97
:107E5000D3F820A0BAF1000F2AD0DAF80C700AF19A
:107E6000100B0BEB8707BB451DD25C4601E0A74218
:107E700019D9A04654F8040B0578B542F7D14278D9
:107E80004A45F4D102304A46019154F06FFD019900
:107E90000028ECD1DAF80400A8EB0B0800EBA800EE
:107EA00003B0BDE8F08FDAF800A0BAF1000FD4D12A
:107EB000504603B0BDE8F08F0526C8E74C360120D8
:107EC00043688B422CBF5B1A00234360704700BF9E
:107ED00070B546688E4206D90B4611448E42044660
:107EE000154601D8436070BD8068721A0144184479
:107EF00054F0FEFC6268521B626070BD70B50546AE
:107F000008460E4654F054FD044620B1D5E900035E
:107F1000314622469847204670BD00BF2DE9F84FF4
:107F20009DF828400B9E14F0DF0F914605468A46C7
:107F3000A6EB02023AD0302C0AA9244E0EBF10271D
:107F40000E46012713F0800836D002EBD278A2EB60
:107F500068044FEA6808B8F1000F32DDC3465F4598
:107F60003A46A8BF5A46ABEB020BD5E900033146AF
:107F70009847BBF1000FF2DCB9F1000F05D0D5E94D
:107F8000000351464A469847C844002C0BDDA044E4
:107F9000A7423A46A8BF2246A41AD5E900033146B3
:107FA0009847002CF4DC4046BDE8F88F13F08008B9
:107FB000074E4FF01007C8D113F0010404D0144647
:107FC000DAE74FF00008D7E79046C4E764A6080058
:107FD00050A608002DE9F04788B000241F469DF800
:107FE0004890119B139D8DF80F40804632B1A142FD
:107FF0001BDB9A074DD52B228DF80F20C9B93021F4
:108000008DF81F100DF11F0613F040042BD09ABB02
:10801000144608AACDE900954046921B3146FFF769
:108020007DFF204408B0BDE8F0872D2249428DF83D
:108030000F20109808AE0DF1100EA0F10A0A01E011
:10804000BC45E1D3B1FBF7F007FB1014092C8CBF42
:108050005444303406F8014D76458C460146EFD144
:1080600013F04004D3D1002AD3D004A98E42D0D932
:1080700006F8012C013ECCE70122CDE900920DF17A
:108080000F0140461193FFF749FF013D119B044644
:10809000BFE713F004021CBF20228DF80F20ADE7CC
:1080A00090F90010037800291EDA024603F07F00E1
:1080B0005B0605D5402320EA03005B081842FAD18D
:1080C000517801F0C003802B10D110B4531C01F083
:1080D0003F0413F8011F01F0C002802A44EA801017
:1080E000F5D05DF8044B704718467047704700BFE5
:1080F000034601305B7803F0C003802B05D110F8F4
:10810000013F03F0C003802BF9D07047014488423F
:108110000CD2421E0139002012F8013F03F0C003C7
:10812000802B18BF01308A42F6D17047002070477B
:108130007F289DBF024B185CC0F3400000207047B1
:10814000A02208007F289DBF024B185CC0F3C0002E
:1081500000207047A02208007F289DBF024B185CBA
:10816000C0F3800000207047A02208007F289DBF38
:10817000024B185CC0F3001000207047A0220800DA
:108180007F289DBF024B185CC0F340100020704751
:10819000A02208007F2804D8024B1B5CDB0648BFE6
:1081A00020307047A02208007F2804D8024B1B5CB7
:1081B0009B0648BF20387047A0220800014488422F
:1081C00037D210B40022E52406E01B062DD501307D
:1081D000531E8142DAB222D90378002AF5D1BF2B8F
:1081E00011D81A0621D4421C914208D9104612F81F
:1081F000013BBF2B07D81B0617D49142F6D10120B3
:108200005DF8044B7047F72B0FD8DB0803F006032B
:10821000013044FA03F3814203F00302DCD8B2FADE
:1082200082F040095DF8044B704700205DF8044B74
:1082300070470120704700BFB2EB131F20D9F0B484
:108240001E0901EB4607961B3246012A844603F0BD
:108250000F013D46044607D055F8023B013ACB409A
:10826000012A24F8023BF7D1701E37F8103023FAA8
:1082700001F12CF81010002918BF3046F0BC7047EF
:10828000002070472DE9F041069FD21B9FB39E1E30
:10829000A1F1020E3D46844600243EF8023F36F826
:1082A000028F43442344013D2CF8023B4FEA134420
:1082B000F3D101EB470100EB47076AB18D1E3E4643
:1082C000114635F8023F0139234426F8023B4FEAB4
:1082D0001344F6D107EB420744B1012327F8023BD0
:1082E0003F1A47FA03F21046BDE8F081381A4210EF
:1082F0001046BDE8F081002AF5D03C460746DDE790
:108300002DE9F041069D521BDDB39F1EA1F1020E27
:108310002E46844600243EF8023F37F8028F23445D
:10832000A3EB0803013E2CF8023B4FEA2344F2D1B1
:1083300001EB450100EB450502B38E1E2F461146A9
:1083400036F8023F0139234427F8023B4FEA234421
:10835000F6D1531E05EB430305EB420203E01A4638
:1083600033F8021929B99842F9D9101A4010BDE81A
:10837000F0810232101A4010BDE8F081AB1E2A468F
:10838000F1E72C460546D7E700EB410302EB41023B
:10839000A1B110B402E00DD1013908D033F8020DBB
:1083A00032F8024D001B0028F5DA4FF0FF305DF87F
:1083B000044B704701205DF8044B70470846704736
:1083C00010B4D0E9013101EB4303994204464FF068
:1083D000000005D233F8022D994242EA0040F9D359
:1083E00023785DF8044BDB0748BF4042704700BF6D
:1083F0002DE9F04FB1B39C18D0E9019AB9F1000F03
:1084000028D0002503EB02084FF0010C2A463AF869
:10841000026B103246EA054590F800B01BF0010FE0
:10842000274604F1FF3EAEB206D0F6435CFA86FC66
:108430001FFA8CF6CCF3072C71B1734504F8016C6C
:1084400008D07446083A072A4FEA1525E4DCB9F14A
:108450000109DCD1BDE8F08F07F8016B4745F9D081
:108460003C46EFE71C46C7E7D0E9013202EB430385
:108470009A429FED0B0A0DD29FED0A7A33F8021D46
:1084800007EE901AF8EEE77A9A42E0EE077AB0EE3D
:10849000670AF3D30378DB0748BFB1EE400A7047A1
:1084A0000000000000008047D0E9023293423DBF47
:1084B0005A1C826018784FF0FF3070470269272AF3
:1084C00035D0222A33D0A2F16201132932D8234BAE
:1084D000CB40DB4313F001032CD14169272926D07F
:1084E000222924D0722A1BD0662A31D172291FD1A9
:1084F00010B48469272C20D0222C1ED0722A0BD0D5
:10850000622A09D1722907D18369272B15D0A3F1DB
:108510002203B3FA83F35B0918465DF8044B7047F6
:108520006629E5D0622903D18369272B0AD101236B
:1085300018467047002318467047012318465DF817
:10854000044B7047A3F12203B3FA83F35B09EFE70F
:10855000622AEDD17229EBD1E6E700BF11000900D4
:1085600010B503690A2B044648D0092BC36A04BF1F
:10857000073323F007030133C362D4E9051394F8EA
:108580007020C4E90413D2B1B4F87220616E8A423B
:108590003AD0501CA16EA4F872008A5CA2610D2B27
:1085A00022D0236953B9D4E90701C4E90401626AFE
:1085B00084F870306366A4F87230A26110BDD4E90B
:1085C000010398476369A0610D2B0ED0013010D1D3
:1085D00063695A1C0DD00A2B0BD094F870300A2214
:1085E000A261002BDDD110BDA0690A23984263610E
:1085F0000DD094F87030002BF5D0D2E7836A0122B9
:108600001344C0E90A32B8E70022A261C7E7D4E9FF
:1086100001039847A061D9E770B50269541C34D0B2
:1086200004460D46002609E00DB1636B83B1204678
:10863000FFF796FF22690126531C09D00A2AF3D0BE
:108640001046FFF775FD58B9232A0ED05C2A01D0D9
:10865000304670BD63690A2BFAD12046FFF780FFD0
:108660002046FFF77DFF2269E6E72046FFF778FF07
:108670002269501C05D1EBE7FFF772FF2269511CFC
:10868000E6D00A2A2046F7D1D6E70026E0E700BF69
:1086900030B110F0030304D10279392A03D018460F
:1086A00070470020704783680B6013F00100F7D11A
:1086B0009A07F5D11868034BC01AB0FA80F0400948
:1086C000704700BF0C9C0800B0F59F7F09D010F0E8
:1086D000010304D043080CBF012000207047184656
:1086E00070470120704700BFB0F5AF7F09D010F090
:1086F000010304D0430814BF01200020704718462E
:1087000070470120704700BF03685BB113F0030F8F
:108710000BD110B41C798C420AD010605DF8044B68
:1087200001207047136018467047106001207047A1
:1087300003F10801116058685DF8044B000A7047A6
:1087400001B9704770B51D468B0782B003D14E68E2
:10875000F3B2934204D02B4602B0BDE870401847F4
:10876000360A09D00C1D04EB860654F8041F01904C
:10877000A847B4420198F8D102B070BD024B896895
:108780009B22FFF7DDBF00BF9DC80500024B896833
:108790006A22FFF7D5BF00BFBDB4060070B582B036
:1087A0000DF105060D46344602F07F03D20904F8A8
:1087B000013DF9D1311BA84701ADAC420BD00146B8
:1087C000224612F8013B63F07F03AA4201F8013B05
:1087D000F7D1121B10449DF80430037002B070BD35
:1087E00010B4D0E90943026B194481622344D018C4
:1087F0005DF8044B704700BF10B44479032C06D8D1
:108800000A46816A114481625DF8044B70475DF845
:10881000044BFFF7E5BF00BF30B54379032B83B0AE
:1088200004460D460AD8836A0133836206490570FF
:10883000204603B0BDE83040FFF7B0BF01210192F0
:10884000FFF7CEFF019AF1E7F987020070B4C5681F
:10885000048FAE8B6B8BC58E33442B444579042D2E
:10886000234404F1010608BFC46B068708BF44F81F
:1088700023201A4670BCFFF7CFBF00BF2833D9B200
:10888000FFF7CABF70B54679032E0D46144607D8C8
:10889000826A05700332230A82624470837070BD5D
:1088A0000321FFF79DFF230A05704470837070BD9C
:1088B00030B44479012C13460A4609D0D0E902416C
:1088C000013484604D8CAC42C8BF4C84002181715E
:1088D0001B3330BCD9B2FFF7D5BF00BF30B44479E9
:1088E000012C13460A4609D0D0E90241013C8460BC
:1088F0004D8CAC42C8BF4C8400218171243330BC04
:10890000D9B2FFF7BFBF00BF30B44479012C134682
:108910000A4607D0D0E902414D8CAC42C8BF4C8416
:10892000002181712A3330BCD9B2FFF7ABBF00BF41
:1089300038B54479032C0D4611D9C169836A51F8C1
:1089400022406FF00202D21A03211444FFF748FFBD
:10895000E3B2C4F3072205704370827038BD816AA8
:10896000057000220331134681624370827038BD66
:1089700038B54479032C0D4611D9846AC169C4F510
:10898000FF4351F822407D3303211C44FFF728FFA9
:10899000E3B2C4F3072205704370827038BD816A68
:1089A000057000220331134681624370827038BD26
:1089B00038B54179012909D0D0E90214013181602B
:1089C000658CA942C8BF6184002181715BB90F2AFF
:1089D00009D84379503A032BD4B20AD90121FFF7C1
:1089E000FFFE047038BD1933D9B2BDE83840FFF737
:1089F00013BF836A04700133836238BD38B541798F
:108A0000012909D0D0E9021401398160658CA9429D
:108A1000C8BF6184002181715BB90F2A09D84379ED
:108A2000403A032BD4B20AD90121FFF7D9FE0470D2
:108A300038BD2233D9B2BDE83840FFF7EDBE836AB6
:108A400004700133836238BD70B4DDE90354164607
:108A5000C4B14279CC1AA4EB4504012AA4F1020462
:108A600009D0D0E902120C448460518C8C42C8BFFA
:108A7000548400228271711C43EA0522C9B270BC81
:108A8000FFF7CABE4279C91A012AA1EB450409D0F1
:108A9000D0E902120C448460518C8C42C8BF5484CB
:108AA0000022827143EA0522F1B270BCFFF7B4BE26
:108AB0004379012B09D0D0E90223114481605A8CFB
:108AC0009142C8BF59840023837170474379012BB9
:108AD00016D030B4D0E90242558CAC4209DC0022F9
:108AE0008271032B03D8C369826A43F8212030BC0A
:108AF0007047548443790022012B8271F1D1F6E74B
:108B0000704700BF38B5012A43790C4616D0012BB7
:108B100027D0D0E90231013B83604D8CAB42C8BF06
:108B20004B840023022A837114D14379032B1AD971
:108B30000121FFF755FE6A23037038BD012B09D0D0
:108B4000D0E90231013383604D8CAB42C8BF4B8406
:108B5000002383716832D1B22246BDE83840FFF766
:108B600091BE022AF6D1836A013383626A230370BD
:108B700038BD00BF4379012B0A460FD0D0E902313E
:108B800010B4013383604C8CA342C8BF4B840023D4
:108B90005DF8044B83711621FFF774BE1621FFF7B1
:108BA00071BE00BF4279012A19D010B5D0E9023157
:108BB000013383604C8CA342C4BF4B8442790023B1
:108BC000032A837105D90121FFF70AFE18230370D8
:108BD00010BD836A013383621823037010BD836A5A
:108BE0000133836218230370704700BF30B44579A6
:108BF000012D14464FEA42030A460BD0D0E9025138
:108C0000C3F101032B4483604D8CAB42C8BF4B843E
:108C100000238371002C18BF1F2130BC08BF1E2108
:108C2000FFF730BE4279012A19D010B5D0E90231E0
:108C3000013383604C8CA342C4BF4B844279002330
:108C4000032A837105D90121FFF7CAFD3023037080
:108C500010BD836A013383623023037010BD836AC1
:108C60000133836230230370704700BF4279012AC9
:108C700019D010B5D0E90231023383604C8CA34285
:108C8000C4BF4B8442790023032A837105D9012193
:108C9000FFF7A6FD3123037010BD836A01338362A1
:108CA0003123037010BD836A013383623123037063
:108CB000704700BF4279012A19D010B5D0E90231BE
:108CC000013B83604C8CA342C4BF4B844279002398
:108CD000032A837105D90121FFF782FD3223037036
:108CE00010BD836A013383623223037010BD836A2F
:108CF0000133836232230370704700BF4379012B35
:108D000017D010B5D0E90212548CA142C4BF5184CF
:108D100043790022032B827105D90121FFF760FD01
:108D20003323037010BD836A0133836233230370DE
:108D300010BD836A0133836233230370704700BF21
:108D4000022A38B50D46044613D06379012B09D0A9
:108D5000D4E90232023BA360508C8342C8BF5384E3
:108D60000023A3712A4620462621BDE83840FFF79C
:108D700089BDFFF717FF2046FFF7C0FFE5E700BFFB
:108D8000A2B910B44279012A03460C4607D0D0E9B3
:108D90000212508C8142C8BF518400229A7122462F
:108DA00018465DF8044B1D21FFF76CBDFFF7C8BFE7
:108DB0008968806A09090022FFF7E2BF4379012B25
:108DC00017D010B5D0E90212548CA142C4BF51840F
:108DD00043790022032B827105D90121FFF700FDA1
:108DE0003423037010BD836A01338362342303701C
:108DF00010BD836A0133836234230370704700BF60
:108E0000022910B504461DD06279012A13D0D4E995
:108E10000231033BA360488C8342C4BF4B84627918
:108E20000023032AA37106D920460121FFF7D8FCAD
:108E30002723037010BDA36A20460133A3622723B2
:108E4000037010BDFFF7AEFE2046FFF7B7FFDBE76C
:108E5000C1B941790129034616D010B5D0E90220E5
:108E6000013A9A60448CA242C4BF428459790022DC
:108E700003299A710ED918460121FFF7B1FC21236D
:108E8000037010BDFFF7BCBF826A212301328262EA
:108E9000037070479A6A184601329A622123037060
:108EA00010BD00BF4379012B0A460DD010B4D0E9A4
:108EB00002135C8CA142C8BF598400235DF8044BA7
:108EC00083713521FFF754BD3521FFF751BD00BF38
:108ED0004379012B13D030B4D0E90234013B8360D5
:108EE000658CAB42C8BF63840023837119B130BC69
:108EF0003621FFF73DBD30BC3721FFF739BD11B139
:108F00003621FFF735BD3721FFF732BD4379012BFD
:108F100013D030B4D0E90234013B8360658CAB429E
:108F2000C8BF63840023837119B130BC3821FFF7B7
:108F30001FBD30BC3921FFF71BBD11B13821FFF730
:108F400017BD3921FFF714BD134630B40A464179E5
:108F500083B9012909D0D0E90241023484604D8CE3
:108F6000AC4200DD4C84002181713D3330BCD9B26C
:108F7000FFF7DEBC0129F8D0D0E902414D8CAC42AC
:108F8000F1DD4C84EFE700BF4279012A19D010B51A
:108F9000D0E90231013B83604C8CA342C4BF4B84B7
:108FA00042790023032A837105D90121FFF718FCB8
:108FB0004123037010BD836A013383624123037030
:108FC00010BD836A0133836241230370704700BF81
:108FD00038B5B1B14379012B2BD0D0E9022103324E
:108FE00082604C8C94421DDA4A8443790022032B20
:108FF00082714FF0470410D8836A01338362047092
:1090000038BD4379012B19D0D0E90242558CAC42CE
:109010000CDC81714224032BEED90121FFF7E0FB28
:10902000047038BD002282714724F4E754844379E8
:10903000EFE7836A013347248362E0E7836A013301
:1090400042248362DBE700BF4379012B0A460FD03D
:10905000D0E9023110B4013383604C8CA342C8BF05
:109060004B8400235DF8044B83714321FFF760BC00
:109070004321FFF75DBC00BF4379012B09D0D0E944
:109080000232043B8360518C8B42C8BF538400235F
:10909000837170474379012B17D010B5D0E90212C4
:1090A000548CA142C4BF518443790022032B8271A6
:1090B00005D90121FFF794FB4423037010BD836A97
:1090C000013383624423037010BD836A01338362DA
:1090D00044230370704700BF4379012B17D010B5AC
:1090E000D0E90212548CA142C4BF518443790022BA
:1090F000032B827105D90121FFF772FB4523037011
:1091000010BD836A013383624523037010BD836AF7
:109110000133836245230370704700BF38B543793C
:10912000012B12D0D0E90242558CAC42C4BF54840A
:1091300043790022032B827107D9A1F13004012168
:10914000FFF74EFBE4B2047038BD836AA1F130042E
:109150000133E4B28362047038BD00BF302970B5BA
:1091600004463BD031292DD02939CDB20026627971
:10917000012A2ED0D4E90231013BA360488C8342FE
:10918000C4BF4B8462790023032AA37121D9012132
:109190002046FFF725FB05709EB16379012B20D097
:1091A000D4E90212508C8142C4BF518463790022F9
:1091B000032BA27115D920460121FFF711FBD32300
:1091C000037070BD6279012A4FF0DE054FF0010691
:1091D000D0D1A36A0133A3622046DCE7DD25012656
:1091E000C5E7A36A0133A3622046E8E71346032BD1
:1091F0000A4630B4417913D00129C2F1010408D0E4
:10920000D0E902512C4484604D8CAC4206DC002134
:109210008171503330BCD9B2FFF7FEBA4C84F6E707
:109220000129F6D0D0E9021401318160658CA94290
:10923000C8BF6184EBE700BF4279012A19D010B59D
:10924000D0E90231023B83604C8CA342C4BF4B8403
:1092500042790023032A837105D90121FFF7C0FA5F
:109260005423037010BD836A013383625423037057
:1092700010BD836A0133836254230370704700BFBB
:1092800030B44479012C01EB020309D0D0E9025437
:109290002B448360658CAB42C8BF63840023837119
:1092A00041EA022230BC5A21FFF7B6BA2DE9F04F4D
:1092B00083B080460C9C01948B4617469946002C3F
:1092C00000F09C80137EA2F81E9043F008031376F2
:1092D00002681378002B54D0138D002B37D04FF039
:1092E000000A554603E0138D01359D422CDAD66AFB
:1092F00016F83530033B012B06EBC506F3D8388D45
:109300000028F0D0002401E0844217DAFB6A13F849
:109310003420042A03EBC40304F10104F4D15B6894
:1093200071689942F0D1DBF8000072880023FFF7E2
:109330003FFB388D84420AF1010AE7DBD8F80020B0
:10934000138D01359D42D2DBBAF1000F2ED1019B66
:10935000DBF8000053EA090314D14379012B09D04B
:10936000D0E9023201338360518C8B42C8BF5384F1
:10937000002383717A69602103B0BDE8F04FFFF7E5
:1093800065BA08684379012B09D0D0E90232013B64
:109390008360518C8B42C8BF5384002383717A69E8
:1093A000612103B0BDE8F04FFFF750BA019BDBF835
:1093B000004053EA090362792DD0012A6FEA0A03BB
:1093C00009D0D4E902120B44A360518C8B42C8BF70
:1093D00053840023A3717A6963212046FFF736FA8C
:1093E0006379032B5FFA8AFA26D8A36A20460133F1
:1093F000A36280F800A003B0BDE8F08FFB83026891
:109400001378002B7FF468AF019BDBF8000053EA70
:109410000903A2D0B6E7012ACAF1010309D0D4E9B1
:1094200002120B44A360518C8B42C8BF53840023AB
:10943000A3717A696221D0E720460121FFF7D0F9B4
:1094400080F800A003B0BDE8F08F00BF2DE9F04127
:109450009446044600268779D0F8148086711A460F
:1094600082B0154B46610D466146FFF769F9A36866
:1094700013B102B0BDE8F081E38AA28A03B182B1E0
:10948000009204F128012A4604F12400FFF70EFFA0
:10949000003F18BF0127A771C4F8148002B0BDE8CF
:1094A000F0811946A06AFFF7A1FEA06AFFF77AFBD8
:1094B000E38AA28AE4E700BF39CE050000B583B095
:1094C000CDE900230B4664220021FFF7BDFA03B06B
:1094D0005DF804FB00B583B0CDE900230B4666229E
:1094E0004FF0FF31FFF7B0FA03B05DF804FB00BFA7
:1094F0004279012A18D010B5D0E90231013B8360CE
:109500004C8CA342C4BF4B8442790121032A817150
:1095100004D9FFF765F95B23037010BD836A01333B
:1095200083625B23037010BD836A8271013383629F
:109530005B230370704700BF38B54479012C0B469C
:1095400014D0D0E90221D21A82604D8CAA42C4BF45
:109550004A8444790022032C827107D90221DCB2AB
:10956000FFF73EF95C234470037038BD826ADCB2B9
:1095700002325C2382624470037038BD10B54379B7
:10958000012B1DD0D0E90223521A82605C8CA242CA
:10959000C4BF5A84C368002282711A7E42F004025A
:1095A0001A7643795D31032BCCB204D8836A0470F8
:1095B0000133836210BD0121FFF712F9047010BD61
:1095C000C368EAE74379012B09D0D0E902320433BA
:1095D0008360518C8B42C8BF5384002383717047D2
:1095E0004379012B09D0D0E90232033B8360518CCF
:1095F0008B42C8BF53840023837170472DE9F04F1D
:1096000010EE104A002C9DF8245004465EDB002D1D
:1096100068D19FEDDB7AF0EEC07AF4EE477AF1EE96
:1096200010FA02F0200E00F3B880B4EE400AF1EE1A
:1096300010FA80F12182002B01F1FF3856DB42F055
:109640002005672D4EF0450E00F07E8110EE102AA9
:10965000002A55D1662D00F0F0805A1D9045D8BFE4
:10966000CB1F652D40F07A814FF02B084FF0000C96
:109670005E1C00274FF0650A00224FF02E09B2EE63
:10968000047A11E03031C9B204F1010B9742217024
:109690005C4616D0F8EEE77A013230EE670AB24245
:1096A00020EE070A80F2D780FDEEC07A04F1010BAC
:1096B00017EE901A0029E5DA3021974221705C46B6
:1096C000E8D1002BE6D004F8019BE3E7B4EE400AB2
:1096D000F1EE10FA9BD62D2504F8015BB1EE400A9D
:1096E000013996E704F8015B013992E742F0200561
:1096F00010EE102A002A4EF0450E4FF00603A9D0B6
:10970000B2F17E5F58D29FED9F7A9F4ADFED9F7A3C
:109710009F4FB4EEC70AF1EE10FAACBF4FF0310A1A
:109720004FF0300A02F1140920264FF0000C01E03E
:10973000F2EC017AB4EEE70AF1EE10FA04D5D7EDB7
:10974000007A20EE270AB4444A454FEA660607F13C
:109750000407EDD110EE102AB2F17E5F0DD2DFEDDD
:10976000897AB4EEE70AF1EE10FA80F25181F2EE56
:10977000047A20EE270A0CF1010C662D00F02481FA
:10978000672D00F08D814FF02D088A1F9A4240F31B
:109790005481652D3FF46CAF54E18EF049028EF098
:1097A0004E038EF0460522706370A57003340023CB
:1097B0002370201ABDE8F08F764ADFED777A774F75
:1097C00002F1140920264FF0000C01E0F2EC017ABE
:1097D000F4EEC07AF1EE10FA04D8D7ED007A20EE5C
:1097E000270AB44491454FEA660607F10407EDD114
:1097F000FDEEC07A17EE902A092A05DDDFED687AC2
:1098000020EE270A0CF1010C662D00F0CD80652DAD
:1098100000F0CC80672D18BF4FF02B0840F08081FE
:109820001A1D904540F326811A469445C0F2508196
:10983000134600274FF02B0899E05E1CB0454FF00F
:109840000008DCBFCB1E8E1E4746C4464FF0660A9A
:10985000002E3FF711AF662D6CD0F1EE047AB4EE16
:10986000E70AF1EE10FA2ADB661E4FF0300B327871
:109870002E2A3146A2F1300906F1FF3708D0B9F19E
:10988000090F07D8392A78D1B04287F801B005D03E
:109890003E46ECE77278302A11D101314A782E2AFF
:1098A00000F0098101348C4288BF224605D912F8A4
:1098B000016C02F801698A42F9D131220A70672DE0
:1098C00027D0B8F1000F3FF472AF364A84F800E0B9
:1098D00082FB0C314FEAEC73C3EBA10382FB032143
:1098E000DA17C2EBA10202EB820203EB8301ACEBBD
:1098F000410CA3EB420330330CF1300CA37084F81D
:10990000018084F803C0043400232370201ABDE8CA
:10991000F08F002BD5D014F8012C302A05D1631E0E
:109920001C4613F8012D302AFAD02E2A08BF04F164
:10993000FF34C6E76645C4DBF1EE047AB4EEE70A0D
:10994000F1EE10FA90DABCE7002B40F09E8010EEAA
:10995000103A1A1E4FF001037FF4D2AE00263746AC
:10996000B046B446AA461A46672D7FF474AF002A63
:1099700023DD1E464FF0670A6AE7013232709EE728
:10998000FFFF7F7FF8FF7F3F9C6108001FB14F0AF8
:10999000B0610800B4610800AEC59D74986108000C
:1099A000CDCCCC3D67666666E0454EDC8A1F9A42A8
:1099B00000DCCB1F4FF02B085AE601231E464FF068
:1099C000670A59E6B7EE000A26461A4606F801ABC2
:1099D000531C984528DCCA1E2E23BCF1010C637071
:1099E00004F1020400F0A1801646302301E0002EAD
:1099F00077D0BCF1010C04F8013B06F1FF36F6D13B
:109A000022EAE273E0464FF0FF374FF0660A1FE7A5
:109A1000BCF1000F62D1662DD4D0672D76D04FF007
:109A20002B08B7EE000AB0E6002AD5D1344613461B
:109A3000164690464FF0660A0DE7652DA1F1070323
:109A40003FF416AEAA46002605E70CEB03020132EE
:109A500090454CDCA8EB0C08B8F1010FA8F102020C
:109A600059D013466244561C67464FF000084FF029
:109A7000660AEDE68A1FD8E64EF04E038EF04105E9
:109A80002370A3706570033491E610EE102A002A4B
:109A90007FF436AE5A1D90453FF760AFCB1F5DE7B0
:109AA000BCF1040F25DD8A1F9A4237DC13464FF0C4
:109AB0002D0800275BE7BAF1660F3FF4F3AE3026BE
:109AC000B8F12D0F0A704E701AD00CF1010CEAE6B5
:109AD0000CF10103D21A22EAE273C3E7B7EE000ADF
:109AE0004BE622EAE273B0464FF0660AB3E61A4646
:109AF000B8E70CF1FF3226461A4406F801AB67E7D7
:109B0000BCF1010C08BF4FF02B08CCE64FF0FF3240
:109B1000B7EE000AEFE700231A46A3E74FF02D083F
:109B200000263746AA461A461EE722EAE273164680
:109B3000E0464FF0FF374FF0660A89E630B4836B9A
:109B40005C6824090FD0DD680023043501E09C42E5
:109B500009D055F83300B0F904208A4203F101031B
:109B6000F5D130BC7047014830BC7047FC6F08002D
:109B7000704700BF064B0340062B07D000F00303DD
:109B8000022B01D0006870470248704702487047B6
:109B9000070080FFB4990800909F080038B58168DD
:109BA000CB07044615D40846FFF7E4FF4369054692
:109BB00005209847E168B1EB600F0DDA49002B6A88
:109BC000A06841F0010104229847E3680133E36093
:109BD00038BD024B024DEBE7002038BD1DB5050036
:109BE0000C9C0800C30701D4FFF7C4BF00487047AE
:109BF0000C9C0800820710B5014603D1114B026886
:109C00009A4211D0CB0708D40846FFF7B3FF436947
:109C100043B1BDE8104005201847BDE810400A4B8D
:109C200005201847184610BD084B0340062B04D0EA
:109C30008068400040F0010010BDC008FEF7B8F891
:109C4000F7E700BF989708001DB50500070080FFE3
:109C500038B5154B98421AD0144DA842044620D06E
:109C6000134B984213D0C3070CD4FFF783FF43690B
:109C70007BB121460420984758B1401BB0FA80F0D0
:109C8000400938BD430814BF0120002038BD002022
:109C900038BD2046FFF7AEFF18B1013818BF0120CC
:109CA00038BD012038BD00BFF46F08000070080007
:109CB000FC6F0800704700BF10B4054A054C88606F
:109CC0000023C1E9004208465DF8044BCB607047B1
:109CD0009D9B0200B09D080038B510F001040BD127
:109CE0000546FFF747FFC36A23B128469847B0FAF5
:109CF00080F46409204638BD0024204638BD00BFEA
:109D0000062806BF490041F001000020704700BF4F
:109D1000042808D0052804D18868400040F00100DC
:109D20007047002070478A68024B0348002A08BF2A
:109D300018467047F46F0800007008000023C1E95E
:109D40000233074A48600A600268064B9A4201D013
:109D5000084670474368C3F317238B600846704773
:109D600044220800C09C0800136803B1704770B417
:109D70004668B41C50F8244066B1043C02E001334C
:109D80009E4207D054F8045FA942F8D1023350F83C
:109D90002330136070BC7047032A0B7906D013B1CF
:109DA0000649FEF7ABB80649FEF7A8B813B1054956
:109DB000FEF7A4B80449FEF7A1B800BFB8CA07006F
:109DC000C0CA0700A8CA0700B0CA0700136803B1D9
:109DD0007047B1F5657F0CD040F2B5239942F7D1B9
:109DE000836823F0030343F00203A3F1FF431360EE
:109DF0007047436823F0030343F00203A3F1FF43DA
:109E000013607047044B0B60037A0B7143688B60DF
:109E10000023CB60084670477C47080010B401223D
:109E2000044C886000230C6008465DF8044B0A71FE
:109E3000CB6070477C47080004280AD0052806D16B
:109E40004868C0F31B10400040F00100704700203C
:109E500070474A68034B044832F00F0208BF1846A7
:109E6000704700BFF46F08000070080010B4C468A9
:109E70000023A4461A465DF8044B1946604700BF0C
:109E800008B50246FFF7AEFE034BC168994218BF02
:109E900012690023936008BD71E5030010B5044604
:109EA000FFF7A0FE074BC068984218BF2469A3685B
:109EB00023B1E3880B60A368136010BD0B601360CF
:109EC00010BD00BF71E5030001F1FF4323F0030360
:109ED000072805D8DFE800F00D0F04041804230656
:109EE0000020704707EE903AF5EEC07AF1EE10FAD6
:109EF00001D40846704783F0004323F0030141F08A
:109F00000201A1F1FF40704707EE903A09490A4863
:109F1000F5EE407AF1EE10FA18BF0846704707EEEA
:109F2000903AFDEEE77A17EE903A590041F00100C1
:109F3000704700BF00700800F46F0800C30706D523
:109F4000401000280FDB14BF0120002070478368F9
:109F50003BB1037913F0010F14BF4FF0FF30012024
:109F60007047184670474FF0FF3070471D4B9842BE
:109F700012D01D4B98420CD010F001030FD04010AE
:109F800007EE900AB8EEE70A81ED000A01231846B1
:109F90007047B7EE000AF7E79FED140AF4E710F0F8
:109FA000030208D110B5124A0468944282B00FD05F
:109FB000184602B010BD022AE9D10E4A0240062A14
:109FC000E5D000F1FF4020F0030300EE103ADBE79C
:109FD00004300191FEF748FA0199012381ED000A4E
:109FE000E6E700BFF46F0800007008000000000002
:109FF0000C9C0800070080FF10B4054A054C8860DF
:10A000000023C1E9004208465DF8044BCB6070476D
:10A0100019A00200B09D0800D0E90212034688682A
:10A02000824205D2C868511C50F82200D96070479E
:10A030000020704700487047FC6F080043681847CD
:10A04000032A02D00249FDF759BF0249FDF756BF66
:10A05000D0CA0700C8CA0700C268002A05DDD0E9D7
:10A0600001318B4206DB00207047FCD0D0E9013182
:10A070008B42F8DD1A445B00426043F001007047F8
:10A0800010B4D1E90143CA681B1B1344002ACCBF9A
:10A0900003F1FF330133042893FBF2F30DD00528BD
:10A0A00007D123EAE370400040F001005DF8044B63
:10A0B000704700205DF8044B7047044A04485DF87F
:10A0C000044B002BC8BF1046704700BF007008004B
:10A0D000F46F080030B4D0E90154C268034BCA6081
:10A0E000C1E90154084630BC0B607047DCAE080083
:10A0F00070B4D0E9026374689C4214D9F16803F12A
:10A100008042013A01EB820151F8042F9D003AB1DF
:10A11000042A05D00133C360F368585970BC7047F6
:10A1200001339C42F0D1002070BC704710B4054A46
:10A13000054C88600023C1E9004208465DF8044BE5
:10A14000CB607047F1A00200B09D080010F0030240
:10A150000FD102680D4B9A4208D010F0010306D1CE
:10A160000B4B9A4202D00023184670470123184631
:10A17000704710F00103FAD1022AF4D1054B0340D5
:10A18000063B18BF01231846704700BFE49608003D
:10A190000C9C0800070080FF10B4054A054C88603D
:10A1A0000023C1E9004208465DF8044BCB607047CC
:10A1B000B9A10200B09D080010B50F4B044680689D
:10A1C0000340062B82B010D0D0E902200192E36850
:10A1D000934207D2C05C4000013340F00100E360CD
:10A1E00002B010BD002002B010BDC00801A9FDF7EB
:10A1F00003FE019AEBE700BF070080FFF0B5204B9C
:10A200000B40062B83B0054632D0D1E902360193CC
:10A210009BB11C4B9D4206F1FF3711D01A4B9D425A
:10A2200003D10DE0019BA3421FD93C4617F8010F53
:10A23000A8470234A41B0028F4D1144803B0F0BD91
:10A2400000213C4617F8012F1046FDF77BFF03461F
:10A2500010461BB1A84701460028EED0019B0234EE
:10A26000A41BA342EDD80029E7D0094803B0F0BDF4
:10A27000C80801A9FDF7C0FD019B0646C8E700BF5D
:10A28000070080FF6D81020081810200F46F0800E9
:10A290000070080001460148FFF7B0BF318102009D
:10A2A00001460148FFF7AABF458102000146014867
:10A2B000FFF7A4BF5981020001460148FFF79EBF86
:10A2C0006D81020001460148FFF798BF81810200BD
:10A2D00070B40023136010F8014B303C05E010F817
:10A2E000014B303CE5B2092D07D803EB830304EBA7
:10A2F0004303884213600646F1D3304670BC704772
:10A3000010B5012A82B00C4608D000234FF0FF326E
:10A310000120C1E900338A6002B010BD094B03403F
:10A32000062B08D0D0E90220206042230020C4E997
:10A33000012302B010BDC00801A9FDF75DFD019A1F
:10A34000F2E700BF070080FF2DE9F0479942DDF8F2
:10A3500020901AD3B9F1010F0C461F468046924651
:10A3600007BFCE1A0024E41A002602E0B4420CD043
:10A370004C4408EB040528463A46514652F0F6FA9A
:10A380000028F3D12846BDE8F08700252846BDE81F
:10A39000F08700BFF0B5884283B004460D4665D013
:10A3A0004B4B9C4243D09D4241D0E20742D4494EA0
:10A3B00004EA0601062947D0A7071BD0454B2B40CE
:10A3C000062B34D0AA0703D1434B2A689A422ED0D9
:10A3D000E3075CD42046FFF7CDFB83693BB32A46F5
:10A3E00021460220984710B33C4C001BB0FA80F085
:10A3F00040091DE0384A20689042DFD12E40062EE9
:10A4000025D16768E808FDF7C1FC062617B108B139
:10A41000B8420CD106294FD0D4E902340093062E5D
:10A4200043D0D5E902210192009B9A4231D000200D
:10A4300003B0F0BDEB07FAD4264E23462C4604EABF
:10A44000060106291D46B7D12E40062E3AD0A80790
:10A45000EDD1214B2A689A42E9D1062920D0062E57
:10A460006768CFD06868002FD4D0D0E700F003032E
:10A47000022B07D01BB91A4B22689A4290D00120B8
:10A4800003B0F0BD134B0340062B89D1F7E7154B02
:10A49000A5E7204652F06AFAB0FA80F04009C7E713
:10A4A000E008FDF773FC0746DCE701A9E808FDF7C3
:10A4B000A3FC019A0146B7E7E0086946FDF79CFC5A
:10A4C0000446ACE7601BB0FA80F04009B0E700BF7B
:10A4D000FC6F0800070080FF909F080000700800D4
:10A4E000C498080011BB0700054B0340062B03D09E
:10A4F00083680B60C0687047C008FDF77DBC00BF73
:10A50000070080FF10B4054A054C88600023C1E9AC
:10A51000004208465DF8044BCB60704765D00600EA
:10A52000B09D080010B582B00446084601A9FFF7A7
:10A53000DBFF042C0CD0052C07D10199FDF7E6FDBB
:10A54000400040F0010002B010BD002002B010BD7C
:10A55000019A034B0348002A08BF184602B010BDF9
:10A56000F46F080000700800D0E902120346486842
:10A57000824205D2901C013251F82000DA60704707
:10A580000020704710B4054A054C88600023C1E9DB
:10A59000004208465DF8044BCB60704769A5020095
:10A5A000B09D0800F8B5184A184C194D0E4607E042
:10A5B000C368A34209D1406B20B10368AB4208D005
:10A5C0009042F5D100242046F8BD30600124204699
:10A5D000F8BD476800F1080505EB8707BD424FF05D
:10A5E0000004F0D255F8040B3146FFF7DBFFAF4211
:10A5F0000444E8D955F8040B3146FFF7D3FFAF42C6
:10A600000444EFD8DFE700BF389D080045EA0600A4
:10A6100044A0080070B50C4684B054F8046B019255
:10A6200000230393054603A93068FFF7BBFF039897
:10A63000019B2246691EC468A0473061014804B0EE
:10A6400070BD00BFFC6F08002DE9F041184C194D9A
:10A650000E460AE010F003020CD10368A3420CD1AD
:10A66000406B28B10368AB420AD0B042F2D101205E
:10A67000BDE8F0810020BDE8F0811046BDE8F08122
:10A68000436803F1804808F1FF3800F1080303EB49
:10A69000880843450AD21F4657F8040B3146FFF796
:10A6A000D3FF3B460028E3D1B845F5D81868DCE76E
:10A6B00080A0080044A00800830703D1064B02686D
:10A6C0009A4202D00549FFF7BFBF054BC2689A42C4
:10A6D000F8D10120704700BF80A00800748E0800E8
:10A6E00071E5030030B583B005460191FFF77AFAB2
:10A6F0000446FFF7E1FF019900280CBF28462046D9
:10A7000003B0BDE83040FFF79FBF00BF70B50C46F7
:10A710000646FFF767FA0546FFF796FF18B1A54210
:10A7200014BF3069304670BD38B50D460449144633
:10A73000FFF7ECFF83682B60C368236038BD00BF60
:10A74000489C08000B4610B50B4904461846FFF715
:10A75000DDFF042C08D0052C04D18068400040F0B7
:10A76000010010BD002010BD8268044B0448002A7F
:10A7700008BF184610BD00BF489C0800F46F0800D1
:10A780000070080070B50E49FFF7C0FF8368012B09
:10A7900003EBD37612DD03F18043013B76109B007F
:10A7A0000022C168CD5851F8224041F822500132B0
:10A7B000C168B242CC50A3F10403F2DB014870BD82
:10A7C000489C0800FC6F080010B50246FFF70AFA23
:10A7D0000346BDE8104010461B6A0422184700BF1C
:10A7E00010B50446FFF7FEF9034620461B6ABDE894
:10A7F0001040184710B50246FFF7F4F90346BDE8CC
:10A80000104010461B6A0022184700BF10B50A46C8
:10A810000146FFF7E7F9BDE8104083692E2018478D
:10A82000024608B50846FFF7DDF9006B18B103884A
:10A83000934218BF002008BDF8B50446022C069FBD
:10A840000E461846154615D084B90124BD422A4645
:10A85000314628BF3A4652F089F800280CDB21D156
:10A86000AF4221D02CBF01200020F8BD032C0DD118
:10A870000424EBE7BA4201D00020F8BD1946304667
:10A8800052F074F8B0FA80F04009F8BDBD422A4693
:10A89000014628BF3A46304652F068F83B462F46FC
:10A8A0001D46DAE70120F8BD601E18BF0120F8BD83
:10A8B00091B1F8B5041F174604EB8105002654F842
:10A8C000040F3946FFF766FD00B10136AC42F6D100
:10A8D000700040F00100F8BD0120704700B583B062
:10A8E0000A4606490192FFF711FFD0E90210019ACA
:10A8F00003B05DF804EBFFF7DBBF00BF489C080026
:10A900000A46083050F8041CFFF7D2BF2DE9F04783
:10A9100007460D46014640F279309A461446FFF745
:10A920007FFF9DF82080D0E9019318F0020F4FF0CF
:10A93000000618BF9946CAF800601CB308F0010869
:10A9400007E0431C10D00644B8F1000F16D1241ABA
:10A9500007D02946534622463846C84705440028B2
:10A96000EFD13046BDE8F087DAF800300B2BF8D194
:10A97000002EF6D00023CAF80030F2E70646304633
:10A98000BDE8F0872646ECE710B582B01446019387
:10A9900061B101AB191838B11346104411F8012DFB
:10A9A00003F8012B8342F9D102B010BD024601A980
:10A9B000204651F06FFF02B010BD00BF014B9869F7
:10A9C000704700BF4C360120014B5869704700BFEB
:10A9D0004C360120024B0348002283F816227047B0
:10A9E0004C360120FC6F0800024B0348012283F81B
:10A9F000162270474C360120FC6F0800044B054AB4
:10AA000093F81602044B002814BF104618467047EE
:10AA10004C36012000700800F46F080000B589B0C2
:10AA200001A8FDF7DFF80398400040F0010009B0ED
:10AA30005DF804FB00B589B001A8FDF7D3F80298D2
:10AA4000400040F0010009B05DF804FB034B1869B9
:10AA50009B68C01A400040F0010070474C3601204E
:10AA6000034A0448B2F81432013BA2F8143270478A
:10AA70004C360120FC6F0800034A0448B2F8143237
:10AA80000133A2F8143270474C360120FC6F0800E5
:10AA900010B404460020226812F8013B03F07F0145
:10AAA0001B0641EAC010F7D422605DF8044B7047E2
:10AAB000002210F8013B03F07F011B0641EAC2129D
:10AAC000F7D41046704700BF10F9013B002BFBDBA9
:10AAD000704700BF08B58068FFF7F6FFFFF7F4FF87
:10AAE0000430FFF7F1FF008808BD00BF08B5136808
:10AAF00003B108BD3029FCD1FFF7ECFFC00040F0E6
:10AB00000600106008BD00BF08B5136803B108BD9A
:10AB1000302904D01B2904BF4368136008BD406876
:10AB2000FFF7D8FFC00040F00600106008BD00BF6E
:10AB300030B405784C1E35B916E0AA4210D110F891
:10AB4000015F5B1A7DB1234614F8012F0233002AFE
:10AB5000F3D17F2D0ED80B4B5B5D13F00C0F0CD097
:10AB6000002030BC704719440A78B2FA82F04009DC
:10AB700030BC7047012030BC7047B5F15F0018BF92
:10AB80000120EEE7A0220800002813DD002908DDDF
:10AB90006FF0404393FBF1F18142ACBF00200120F4
:10ABA00070474FF0404393FBF0F08842D4BF002041
:10ABB00001207047002908DD4FF0404393FBF1F17D
:10ABC0008142D4BF00200120704738B16FF040436C
:10ABD00093FBF0F08142ACBF00200120704700BF22
:10ABE000D0E9023293420DD010B4D0E900415A1C92
:10ABF00082608A42E35C24BF002282605DF8044BDD
:10AC0000184670474FF0FF30704700BF30B403461E
:10AC1000D3E90154C068421C954298BF0022944277
:10AC200005D01C6821540020DA6030BC70474FF01A
:10AC3000FF30FAE74268D0E9020313441B1AB3FB62
:10AC4000F2F002FB103070472DE9F0410446104647
:10AC5000D2B101EB020EE6680EF1FF3E4D1EC1F1CE
:10AC6000010C00E01E46D4E90171731CBB4228BFF1
:10AC7000002399420CEB050815F8017F06D02168E6
:10AC800075458F55E360EDD1BDE8F0814046FBE7A7
:10AC900012B32DE9F0414C1E0346C1F1010C04EB47
:10ACA00002084FF0000ED3E90256B54205F101014A
:10ACB0000CEB04000ED0D3E900679960B942755DD2
:10ACC00028BF7146996004F8015F4445EBD11046F6
:10ACD000BDE8F0810246FAE7104670472DE9F04FD3
:10ACE000074683B00C469346002A40F0068201F1E5
:10ACF0000C053B78D4F800903846002B6CD009F155
:10AD00000202AA1801924E464FF00008292B58D093
:10AD10005E2B00F2C081232B40F29981A3F1240223
:10AD20003A2A00F29481DFE812F0A1019201920127
:10AD300092015601920127010C0192019201BD007E
:10AD4000920192019201920192019201920192016B
:10AD5000920192019201920192019201920192015B
:10AD60009A00920192019201920192019201920144
:10AD7000920192019201920192019201920192013B
:10AD8000920192019201920192019201920192012B
:10AD90009201920192019201C6005A0092013B0079
:10ADA000002D00F0A68123685022591C2160EA542E
:10ADB000266863680133384663604378471C002B7C
:10ADC000A4D13846B8F1000F06D02DB12368013B5D
:10ADD000A3EB080305F8083003B0BDE8F08F7A78DC
:10ADE000781C002A00F0818142F020016429266845
:10ADF00000F0458122F0040242F02002732A00F0A4
:10AE00003E81002D00F09781721C22604FF00102FC
:10AE1000AA552268797802F1010CA1F16107C4F802
:10AE200000C02A44172F00F24682DFE817F04302E1
:10AE30006E024402440244026B0244024402440291
:10AE400044024402440244026802440244024402AE
:10AE50006502440244024402620244025F02226824
:10AE6000B24200F04281002D00F0558105EB060A48
:10AE7000B01C921B5146284451F03AFD236802331E
:10AE800023607B783F2B00F01C826123AB55384652
:10AE90002368023B9E1B8AF80160266863680133C1
:10AEA00063608AE72668002D00F0E981721C0223A6
:10AEB0002260AB557DE77B7826685E2B00F0BA8177
:10AEC000781C002D00F0E581721C03232260AB5535
:10AED000D4E9002301330132C4E900237B785D2BE0
:10AEE00008BF00212AD00021002B00F0FE805C2B3F
:10AEF00000F057812368002D00F08D815A1C2260DC
:10AF00000278EA54236842782D2A00F044810278BE
:10AF10005C2A00F01381002D00F080815A1C226011
:10AF20000278EA54024653785D2B01F1010102F1E7
:10AF30000100D9D1002D3FF440AFC9B2AB1959700F
:10AF40003BE72368B34200F0D0807A783F2A00F0D4
:10AF50008E81002D00F0A7816222EA5438462368D2
:10AF6000C3F1FE022B4416445E70236862689E1C87
:10AF70000132C4E9006220E72268B24200F0B580E5
:10AF8000002D00F0D08005EB060AB01C921B514644
:10AF9000284451F0ADFC2368023360222360EA5458
:10AFA0002268F1B2C2F1FE032A440B4453702368B5
:10AFB000023323607B783F2B00F067816123AB5520
:10AFC00038462368023B5B1A8AF8013026686368BA
:10AFD00002336360F1E67B7826683F2B00F03F8107
:10AFE000A36803F1010AC4F808A0002D00F04A810B
:10AFF000721C7E232260AB5522684FEA4A03511C23
:10B000002160AB546368013363600123781C5A46A6
:10B0100021460093FFF762FE002866D00278292AB5
:10B0200063D1009B002B3FF4C8AE2368002D00F0D5
:10B030004C81591C7E222160EA5423684FEA4A0A57
:10B040000AF1010A5A1C226005F803A026E72668C7
:10B05000002D00F01181731C23604FF00103AB55EC
:10B0600023685A1C22603A78EA54A2E6002D40D0A8
:10B0700023685122591C2160EA54266899E6002D64
:10B0800059D0721C05232260AB5523685A1C2260DC
:10B090007A78EA5402E77C2BD9D1B8F1000F2ED090
:10B0A0007DB32368013BA3EB080305F80830226851
:10B0B000019805EB09063146A2EB090251F018FC94
:10B0C0002368EA186021033323609170D4F800806C
:10B0D000612308F10102226005F809302368023B70
:10B0E000A3EB09037370266810E0002003B0BDE8ED
:10B0F000F08F2668013626605BE60025F9E5002D15
:10B10000D5D123681E1D266003F10308636802334E
:10B110003846636051E6961C26607B783F2B00F032
:10B12000E3803846BAE6161D26607B783F2B00F098
:10B13000C48038464BE7B31C2360AFE6421C002DA9
:10B1400075D0407803F1010CA0F16107C4F800C08C
:10B150002B44172F0ED8DFE807F00CAA0D0D0D1B9E
:10B160000D0D0D0D0D0D0D180D0D0D150D0D0D12F7
:10B170000D0F07201870D6E65C201870D3E60B2060
:10B180001870D0E60D201870CDE60A201870CAE6B7
:10B190000C201870C7E682785D2A3FF4B8AE023002
:10B1A000B6E6471C002D3DD02368427803F1010C20
:10B1B000A2F16100C4F800C02B4417280ED8DFE8C4
:10B1C00000F00C740D0D0D250D0D0D0D0D0D0D2048
:10B1D0000D0D0D1B0D0D0D160D1107221A70236894
:10B1E000384690E65C221A70236838468BE60B22BC
:10B1F0001A702368384686E60D221A70236838468E
:10B2000081E60A221A70236838467CE60C221A70FE
:10B210002368384677E60133236074E60133236000
:10B22000024680E623680133384623606BE601332B
:10B23000236078E6002D4BD0721C04232260AB55AE
:10B24000D4E9002301330132C4E90023BB785D2B2C
:10B2500007F1020008BF00217FF445AE6DE6BB7820
:10B260003A2B7FF4BDAE002302379A46CEE635B3C3
:10B270006122EA54781C72E6B31C236099E5731CC2
:10B28000236096E5B31C2360BCE66223AB55781CB3
:10B2900097E66368B21C0133C4E900237B785D2B19
:10B2A0007FF421AE89E5384660E6082296E708205B
:10B2B000187038E607211170F0E5781C87E6781CD5
:10B2C00054E66223AB55781CE2E502332360E5E5E2
:10B2D0006368B21C0133C4E90023BB785D2B07F11E
:10B2E00002007FF400AE68E5781CD7E519461170BE
:10B2F000D4E50B211170D1E50D211170CEE50A21A5
:10B300001170CBE50C211170C8E508211170C5E55D
:10B310002DE9F84303782F2B06460F4629D0DFF896
:10B320008480D8F8E0502DB13E60D8F8E05028462F
:10B33000BDE8F883002BFAD0D8F8E4504FF00009AC
:10B3400065B9F1E72968013151F058FB321918B994
:10B35000335D2F2B1ED0FBB1ED68B5B16C68013C9D
:10B3600030462246EED1A6EB09063E602846BDE8EF
:10B37000F88345780136002DD9D0DFF82880D8F839
:10B38000E4502DB14FF00109E8E7B9F1000FCBD03F
:10B390000125CCE73A60CAE7014B3B60C7E700BF35
:10B3A000D8CA07004C36012030B5C3888288934242
:10B3B00085B0044611D3172A16D90146012551F844
:10B3C000080B009503AB1822FFF7A0FA039B80B28D
:10B3D000A0804BB940B12A4601E05A1C92B22344E6
:10B3E000E280187A05B030BD4FF0FF3005B030BDB7
:10B3F00038B50446D0E90005954228BF15462A46CF
:10B4000051F048FAD4E900322B44521BC4E900320F
:10B4100038BD00BFBFF34F8F0549064BCA6802F421
:10B42000E0621343CB60BFF34F8F00BFFDE700BF67
:10B4300000ED00E00400FA0541DF704712DF7047BD
:10B4400008B50748074BD3F80415D0E9022349098A
:10B45000521843F10003C0E90223FFF7DBFF00BFEE
:10B4600078390120004002407F292DE9F04104464F
:10B470002CDDA1F180053C2D0CD98B1101F03F0191
:10B4800063F03F0361F07F01037041700226304694
:10B49000BDE8F081FDB91A4F20214FF00908204680
:10B4A000FFF7E2FF0135002645452F4404440644DA
:10B4B000EDD2204617F8011BFFF7D6FF01354545B1
:10B4C00004440644F5D33046BDE8F08101700126FE
:10B4D0003046BDE8F0810B4B19445A5D11F8813CB0
:10B4E0004FEA450808F1020803EB45039044434541
:10B4F00003D2034F1D46F95CD1E70026C7E700BF22
:10B50000C40009007C0009002DE9F04F90F800907C
:10B51000457883B009F1010388460193B9F1000F22
:10B5200034D01F4F83464FF0000A072401264FF006
:10B53000000C604663466146490015F0800F03F138
:10B54000010306F1010218BF41F00101DBB25CB951
:10B55000D6B207241BF8065008B1814209D3FA5C21
:10B5600002EB40009444E7E76D00013CEDB2E4B229
:10B57000F2E761440B4B091A08EB0A00595CFFF72C
:10B5800073FF50441FFA80FACA45D0DB019B434445
:10B590000022404603F8012C03B0BDE8F08F00BF45
:10B5A000A064080018FB080070B50A4B0A4D0B4E4A
:10B5B00001220021C3F800251643296064241A6083
:10B5C00002E0B047013C04D02B684FF42070002B00
:10B5D000F7D070BD00900240009102408046080004
:10B5E0002DE9F8430546C389047A008A89461FFA83
:10B5F00083F881B2002C32D1A8EB01038845AC88D6
:10B600009BB251D3E31A9FB2974228BF1746B5F8B1
:10B6100006C03E46AB8943453DBF6B8943449BB260
:10B62000434601E01B1B9BB2A342FBD29A19A242E4
:10B6300021DC286849460CFB030006FB0CF251F0A4
:10B6400029F9AB8946449E42C3BF6B894344DB1949
:10B6500008EB07039BB2EB813846BDE8F883AC8862
:10B66000A2421CD9B5F806C0E981161B0CFB06994D
:10B6700027462646CEE7E21A286894B20CFB04F26D
:10B680000CFB0300494651F005F9EB882868321B92
:10B6900003FB049103FB02F251F0FCF8D1E7B5F88B
:10B6A00006C016461746B5E769895B1A9BB2A9E73B
:10B6B00010B4C489018AA4B289B2631A8C420246CA
:10B6C00098B202D25389C01A80B25DF8044B704719
:10B6D00038B5C589028AADB292B2AB1AAA42044605
:10B6E0009BB202D942899B1A9BB2A2889A421BD074
:10B6F000A389AB423DBF63895B199BB22B4601E036
:10B700009B1A9BB29A42FBD9E288206802FB030095
:10B7100051F0C0F8A389AB429CBF6389ED18013595
:10B72000ADB2E581012038BD207A0028E0D138BDD6
:10B730002DE9F843DFF8AC90264E274C274FDFF871
:10B74000A880372200210546484651F0E9F84FF01D
:10B75000FF322349C9F80320C9F80720C9F80B2094
:10B76000C9F80F20C9F81320C9F81720C9F81B2001
:10B77000C9F81F20A9F823200022C1E90022C1E94D
:10B78000022233780A619146C4B14B4518D8A9EB1F
:10B790000303DBB2032B1AD81BB203EB430307EB03
:10B7A000C3035B6828469847337809F101095FFABB
:10B7B00089F9DA1C4A45E7DABDE8F8834B46E9E740
:10B7C000D8F8003009EB490203EBC203E9E7002394
:10B7D0005B68FFDED4060120000000008410080032
:10B7E000900F0120B02C0120D006012002484022F9
:10B7F000002151F095B800BF4C250120024840229D
:10B80000002151F08DB800BF4C2501204DDF70475D
:10B810004EDF70474FDF704750DF704708B10020A0
:10B8200070470B4BD3F8E4000028F9D00346C068FA
:10B830000028FBD19B68002BF2D09A69002AEFD038
:10B84000988800F03000203818BF0120704700BFF2
:10B850004C36012002488C22002151F061B800BF13
:10B860008010012002488C22002151F059B800BFFD
:10B8700080100120807A400040F00100704700BF36
:10B88000C07A400040F00100704700BFF0B4174696
:10B89000E9B9013B17F8010B9BB20F4A002415468A
:10B8A0002E7A864205F1140504D00134042CF7D118
:10B8B000F0BC704704EB840402EB8404227C9A42BF
:10B8C000F6D3E06839461A46F0BC50F0E3BF0229CF
:10B8D000E3D0F0BC704700BF0C040120002070478B
:10B8E000FEE700BF61DF70474BDF704710B40A4CC2
:10B8F000D4F8DC3063B1DC3402E01C461B683BB199
:10B900009A688242F9D15A688A42F6D11B6823604C
:10B910005DF8044B704700BF4C360120B1DF704723
:10B92000B2DF704770B4144C144E05460020F0B1DD
:10B930004378FF2B18D0C388033323F00303083365
:10B940001844A04210D84378002BF0D09942EED191
:10B95000FF2907D0037803F00103AB42E7D1438806
:10B960009342E4D170BC7047002070BC704773787C
:10B9700002489942DBD1EBE7FB1F0F0004A00E0049
:10B9800042884378007843EA022340EA0320704764
:10B990000B0A017043700B0C090E8370C170704765
:10B9A000036A0239023B8B4283BFC389406B01FBB0
:10B9B000030000207047836A02680433D289490A71
:10B9C000B1FBF2F1186830B1814202D3091A083391
:10B9D000F8E758680844704700F10B010022D301D2
:10B9E00043EA520310F8012B52FA83F38842DAB289
:10B9F000F5D110467047CA7E8B7E032843EA0223A6
:10BA000005D1487D0A7D42EA002243EA02431846F6
:10BA10007047C2F307238A76CB760378032B03D1D2
:10BA2000120C0A75120A4A757047000010B40B49CF
:10BA30000023C72203E0802B0CD031F8022F904264
:10BA40009CB203F10103F6D104F1800080B25DF8ED
:10BA5000044B704700205DF8044B7047840F0800CA
:10BA600070B4264A264BB0F5805F41F67D512CBF5D
:10BA70001346612104330DE081420ED833F8022CC5
:10BA8000D4B26518A8424FEA122208DB04337AB117
:10BA900033F8041C1E460029EED170BC7047082AFA
:10BAA000FBD8DFE802F00E12181B1E2124270A0023
:10BAB00036F8141006EB4403DCE7A0F5E35080B23F
:10BAC000EBE7411A33F81100E7E7411A01F00103EF
:10BAD000C01A80B2E1E7103880B2DEE7203880B2C9
:10BAE000DBE7303880B2D8E71A3880B2D5E70830C3
:10BAF00080B2D2E7503880B2CFE700BF6C44080074
:10BB000078420800584BA0F59E00A0F5D05083FB6A
:10BB100000230344C217F0B4544CC2EB234304FB8C
:10BB20001300002804DA00F5A83000F5C070013BCE
:10BB30004F4A504F504EA2FB00546409A2FB0452DE
:10BB400052099D1CC2EB0212A4EB820287FB05C7BF
:10BB5000C4EB0414A6FB00C6A0EB84042F44E81732
:10BB6000C0EBA700C0EBC000281A48BF0730F60A98
:10BB7000002B4A718C710E71C87143DB00253F4860
:10BB80003F4A404CA0FB0360C00902FB003384FB2A
:10BB900003241C44DA17C2EB2422042A59D06FF480
:10BBA000B67404FB02F492B205EB8000024497B233
:10BBB00007F5FA652344ADB21E2B0D804CDD324EE5
:10BBC0001E2400201F2201E016F9014F9B1A9C42FF
:10BBD00000F101002246F7DDC0B2821CD2B20B2A6E
:10BBE00016D90938C0B2294A8870441E013332F888
:10BBF0001400DBB207F2D172CB700A800344F0BCB0
:10BC00000B81704703F50E43AD334FF69C75B6E7D5
:10BC10000330C0B21D4A8870441E013332F814202C
:10BC2000DBB2CB701344AA070AD1194A194802FBA8
:10BC300005F2B0EBB20F03D20133F0BC0B817047B9
:10BC4000134A154802FB05F5B0EB351FD7D3013376
:10BC5000F3E7124C0322A7E70133DBB20322CB70D8
:10BC60008A703B33DFE700BF07452EC280510100D9
:10BC70008988888893244992C5B3A29173B06D16C0
:10BC80004BFAFFFFB1F98CB3294508003445080091
:10BC9000295C8FC2285C8F020AD7A300B9FBFFFF83
:10BCA000F0B5214C059D4E1EC5EB051534F8166008
:10BCB00002294FF46164324404FB03F3069E4FEA09
:10BCC000850509D9840725D11849194C01FB00F1D4
:10BCD000B4EBB10F1ED20132DFF868C0154C6FF41F
:10BCE000C861411804FB0066ACFB0171124CA0F264
:10BCF0006D77C909A0F2CD7E01EB9E003444ACFB08
:10BD00000771A0EB51101C440C4B10442C4403FB56
:10BD10000040F0BD05490A4C01FB00F1B4EB311FB6
:10BD2000DAD30132D8E700BF34450800295C8FC25E
:10BD3000285C8F028033E10180569C5080510100C5
:10BD40000AD7A3001F85EB51002910B414680FDB3C
:10BD5000A14228BF21460368002BBCBF1B1903600A
:10BD60009942ACBFC91A00215DF8044B11607047BD
:10BD70002144F0E701291DBF16224FF0FF301A6061
:10BD80000020704700487047FC6F080029DF7047AB
:10BD900028DF704710B582B000238DF80730EFF32D
:10BDA00010830D4C23B100232370207802B010BD06
:10BDB0000DF10700FFF742FB9DF80730002BF2D092
:10BDC0002378012BF1D1FFF737FB2378012BFAD031
:10BDD000207802B010BD00BF20390120074B10B5FC
:10BDE00001241C70FFF7D2FF08B1002010BDFFF73F
:10BDF000D1FF023818BF012010BD00BF203901203B
:10BE0000F0B500F1080683B00D4614464FF0FF3739
:10BE100002E0A4B204350436042C2246294628BF89
:10BE2000042201A8019750F035FD012201A93046F6
:10BE3000FFF7D4FF042CA4F10404EAD803B0F0BD4A
:10BE400030B40E4B1A68B2B10D4B002808BF1A4629
:10BE5000131F02F12004C2F10402D51853F8041F85
:10BE6000814204D0A342F8D1002030BC704704487E
:10BE7000284430BC7047024AEAE700BFC8380120B6
:10BE8000BC2D012042DF704743DF704744DF70471D
:10BE900010B54FF0804386B0D3F80443620705D550
:10BEA000D3F8082103F58473002A4ED1A30603D5E5
:10BEB0002A4B1A68002A3FD1600603D5284B1A681E
:10BEC000002A2FD1210602D5264B1A680ABBE205AB
:10BED00002D5254B1A6892B9A3050ED5234B1A68D3
:10BEE0005AB100221A601A68214B0592059A1B6804
:10BEF000022006B0BDE81040184706B010BD002271
:10BF00001A601B4A1B68049301201368049A98471F
:10BF1000E2E700201860164A1B6803931368039A2F
:10BF20009847D4E700221A60124A1B680293012046
:10BF30001368029A9847C5E7002018600D4A1B68ED
:10BF400001931368019A9847B6E700221A600A4ADB
:10BF50001B6800931368009A9847A7E714010040F4
:10BF6000180100401C010040200100402401004055
:10BF7000403601203C3601203836012090F8203030
:10BF8000FF2B0FD0827F6AB9C27FA2B11F2B8ABF5D
:10BF90000F494FF0A04103F01F03012202FA03F3FF
:10BFA000C1F80C35002203464277027253F8082B81
:10BFB0004168184610471F2B8ABF05494FF0A04122
:10BFC00003F01F03012202FA03F3C1F80835E9E781
:10BFD00000030050F0B50379284C03EBC30104EBD8
:10BFE0008106357F002D41D08900DA006158002993
:10BFF0003DD00168DFF894E0DFF894C041F30735E5
:10C000006D092035C1F30431012707FA01F14EF81B
:10C0100025100168C1F808C3707F48B14F61D1F89D
:10C0200004010028FBD0D01804EB800000254577E0
:10C03000D01804EB800090F82100FF280BD01F28B7
:10C0400086BF00F01F000E4E4FF0A04600F5E070D6
:10C05000022546F820500B4800258142C1F80055C2
:10C0600007D0134404EB830400232377F0BD016859
:10C07000DEE7054901200860F3E700BF94340120A2
:10C080000003005000F0024004F0024000E100E034
:10C0900052010800084BD3F8182102B9704700225A
:10C0A00082B0C3F81821D3F818310193019B0348DB
:10C0B00002B0FFF763BF00BF00F00240B8340120B8
:10C0C000F0B505793E4E044605EB450006EB800CC5
:10C0D00083B09CF80830002B6FD180006F00325085
:10C0E0004A68CCF80420627982B11A469C469B00CB
:10C0F000206803F5A073013240F803C0C35860798B
:10C100000193D3B29842DDF804E0F0D82268CB78EE
:10C1100042F3073000284FEA123246DB00F160405C
:10C1200000F561405B01DBB280F8003322682548EE
:10C1300042F3C43323F0604323F0030303F160436D
:10C1400003F561434FF0010CC2F304320CFA02F222
:10C15000C3F880211A60D4F800E04B78DEF804259B
:10C1600003F0030322F003021343CEF80435D4F89E
:10C1700000E08B78DEF8082503F0030322F00302C9
:10C180001343CEF8083524680B78D4F810253D44C5
:10C1900006EB850622F00F0203F00F03134386F827
:10C1A00008C0C4F8103503B0F0BD074802F00F0214
:10C1B0005B011044DBB20376B8E7044803B0F0BD7E
:10C1C000DC3401200000AD0BFCEC00E00500AD0B01
:10C1D0000379184A03EB430302EB83031B7A43B34F
:10C1E000036843F30731490930B420310124124D6B
:10C1F000C3F3043304FA03F345F821300368002144
:10C20000D3F80052C3F8001203684FF0FF35C3F8AB
:10C21000085303681C61037903EB430302EB8303B8
:10C220001C72037903EB430302EB8302117230BCEF
:10C2300070477047DC34012000E100E00F4B98426A
:10C2400018D003F10802904216D003F11002904278
:10C2500005D01833984208BF032201D0704702224C
:10C26000074910B40023074C8B54A3545DF8044BCA
:10C27000FFF7AEBF0022F3E70122F1E75C020120E5
:10C28000C4380120C03801200A7B0346032A11D894
:10C29000DFE802F0121E24028868194A904228D072
:10C2A000886840F20222904204D14969D3F84C25B3
:10C2B000914206D1012070470969D3F84C2591427B
:10C2C000F8D000200622C3F80005C3F80025704707
:10C2D0000969D3F83C259142F3D1EBE7D3F84C251B
:10C2E00008699042EDD14969D3F83C259142E8D1E3
:10C2F000E0E7D3F84C2508699042E2D1D0E700BFCF
:10C30000000204002DE9F0411646002280F82E209C
:10C31000F26802F06042B2F1005F88B035D1984611
:10C32000924BC1F8083390F82F3005460C4603F0C5
:10C33000FF0E002B40F0CC80012380F82F30B44654
:10C34000BCE80F0005F10C070FC7DCF800303B60BC
:10C3500085F830E07378C4F88835C4F804E1D4F87F
:10C3600004310193019BC4F824E1D4F824310093F3
:10C37000009BC4F850E5C4F840E53378032B00F285
:10C38000EF80DFE803F045718507794E304608B04D
:10C39000BDE8F081336903F06043B3F1005FF4D18D
:10C3A0004FF48073C4F80032F3687268C4F84435FF
:10C3B0000023C4F84825C4F85031D4F85021049221
:10C3C000049AC4F86031D4F860210392039AC4F847
:10C3D0004831D4F8483102930123029A2362A360C2
:10C3E000D4F85031002BFBD00023C4F85031D4F8DE
:10C3F00050310593B26831695E4B0598C4F8441515
:10C40000C4F84825AB6033784FF4827108221CE0F1
:10C410007368F268C4F84425C4F84835B8F1000FD1
:10C4200000F08B804FF48073C4F80032514AAA6048
:10C430000023C4F84831D4F848310693069B4FF4E2
:10C44000A4710123236233780822032B4A4E01D0C2
:10C450000123A3502B68002B42D0AB68C4F80433EF
:10C46000304608B0BDE8F0817368F268C4F834253E
:10C470004FF48051C4F8383540F202220123C4F849
:10C480000012AA60236233784FF482710022DCE745
:10C490007368F268C4F84425C4F84835336903F07A
:10C4A0006042B2F1005F7FF470AFB068C4F8343519
:10C4B0004FF4845140F202220123C4F83805C4F835
:10C4C0000012AA60236233784FF482710822BCE71D
:10C4D0002A4E8368C1F80433304608B0BDE8F081C5
:10C4E0000120214402E0D4F82421DAB90B68002BA2
:10C4F000F9D0D4F8C434C4F8C434002285F82F200D
:10C500002BB31F481F49204E204A13F0010F18BFBC
:10C51000064613F0020F18BF0E4613F0040F18BFA3
:10C52000164633E7C4F82431D4F824310793079B27
:10C5300020624FF482716061D3E74FF4007240F2E1
:10C540000223C4F800224FF48271AB6079E72946D8
:10C550002046FFF799FE0C4B002808BF1E4615E742
:10C560000B4E4FF48271082272E700BF02029C0159
:10C570000A00AD0B000204000000AD0B0B00AD0B78
:10C580000000AE0B0100AE0B0100AD0B0200AE0BC4
:10C590000400AD0BF0B5D0F824318DB004460D4643
:10C5A00053B10023C0F82431D0F824310193019B0A
:10C5B000D0F80431002B74D0D4F80431002B3AD0D9
:10C5C0000023C4F8043105F10C070FCF07AE0FC6E6
:10C5D000D4F8041195F82E303A6802913260029A2C
:10C5E000002B7FD00023C4F86031D4F8602104927E
:10C5F000049AC4F85C31D4F85C2195F83030039289
:10C60000039A002B3ED095F82E30002B3AD1D4F867
:10C61000C434C4F8C4349A072DD501238DF81830DA
:10C6200095F830300BB985F82F30D5E9003106A8E0
:10C6300098470DB0F0BDC4F84831D4F848212B7BA1
:10C640000592059A002B3BD105F10C070FCF07AEE1
:10C650000FC695F830303A683260002BD7D1274AA0
:10C66000C4F80032AB60C4F80823D4F8C434C4F86A
:10C67000C4349A07D1D413F0050F0BD002238DF8E0
:10C680001830CDE700231D4AC4F80032AB60C4F86F
:10C690000823BCE795F82E306BB304238DF81830CF
:10C6A000BEE78B68C0F8083302238B608B68C0F844
:10C6B000043301230362436181F82E300DB0F0BDD5
:10C6C0000E4B4FF4007140F20222C4F80012AA602F
:10C6D000C4F80833AB68C4F804330123A3602362B1
:10C6E0000DB0F0BD29462046FFF7CEFD80F00100D9
:10C6F00085F82E0076E78DF8183091E702029C014C
:10C70000F0B403792D49342202FB03F28C1894F81B
:10C710002D40002C4ED08A58002A4DD00468284E57
:10C7200044F3073252092032C4F30434012505FAD8
:10C7300004F446F8224004790268224F342505FBB0
:10C740000414002605FB0315A660C2F8087395F8CB
:10C750003270D2F800524FF0010C25F4BC55C2F8EB
:10C76000005284F82DC0C2F80065EFB90268D2F813
:10C7700008251F2A86BF02F01F02134C4FF0A04469
:10C7800002F5E072022544F822500268D2F80C2526
:10C790001F2A86BF02F01F020B484FF0A04002F58F
:10C7A000E072022440F82240342202FB03130022EC
:10C7B00083F82D20F0BC70471C46BDE7F4340120FF
:10C7C00000E100E002029C010003005010B40C4C98
:10C7D000027903680B49342000FB0242002090607C
:10C7E000C3F80813D3F80012012421F4BC51C3F894
:10C7F000001282F82D40C3F800055DF8044B704725
:10C80000F434012002029C0101490248FFF7C2BE34
:10C81000F43401200030004002494FF04020FFF77F
:10C82000B9BE00BF2835012070B5D0F824318AB0D8
:10C8300004460D46002B6AD00023C0F82431D0F8FE
:10C8400024210192019AD0F88024C0F88024D0F8E5
:10C850003C05C9680992C5E9063302220890079190
:10C86000D5E9001306A88DF818209847D4F844316C
:10C870004BB10023C4F84431D4F84411AA690391A0
:10C880000399002A34D1D4F8203153B10023C4F8DD
:10C890002031D4F82021049201220499E2606A69CF
:10C8A000CAB9D4F85831A3B10023C4F85831D4F828
:10C8B00058210592059A6A695AB1D4F84C15AA68AC
:10C8C00008918DF818306B610792D5E9001306A81E
:10C8D00098470AB070BDD4F84C15AA688DF8183086
:10C8E00008916B610792D5E9001306A89847D8E72D
:10C8F000C5E90633D4F83C35EA68089301238DF87E
:10C9000018300792D5E9001306A89847BBE7D0F87E
:10C910001021002AAAD0C0F81031D0F810210292BC
:10C92000029A8A69D0F83C158A429FD1E96979B1A7
:10C93000D0F80012EE68089221F02001C0F8001231
:10C94000E86929690796C5E906030122E96087E7D6
:10C95000E868A9610123CDE907028DF8183006A81F
:10C96000D5E90013984781E7F0B50179484C01EB10
:10C97000C10304EB830383B093F82020002A00F066
:10C9800084805B68CF0083B10368424AC3F8082300
:10C990000268414E42F307335B092033C2F304328D
:10C9A000012505FA02F246F823200268D2F8003287
:10C9B00023F02003C2F800320268012353600268AA
:10C9C0000025C2F85851D2F8585102680195019DCE
:10C9D000D3600268D2F85831002BFBD00023C2F894
